{
  "contractName": "BFactor",
  "abi": [
    {
      "inputs": [
        {
          "internalType": "string",
          "name": "_name",
          "type": "string"
        }
      ],
      "stateMutability": "payable",
      "type": "constructor",
      "payable": true
    },
    {
      "anonymous": false,
      "inputs": [
        {
          "indexed": false,
          "internalType": "uint256",
          "name": "_offerId",
          "type": "uint256"
        },
        {
          "indexed": false,
          "internalType": "int256",
          "name": "_amount",
          "type": "int256"
        }
      ],
      "name": "AdvanceRateDeposited",
      "type": "event"
    },
    {
      "anonymous": false,
      "inputs": [
        {
          "indexed": false,
          "internalType": "address",
          "name": "sender",
          "type": "address"
        },
        {
          "indexed": false,
          "internalType": "bytes32",
          "name": "dataHash",
          "type": "bytes32"
        },
        {
          "indexed": false,
          "internalType": "uint64",
          "name": "block",
          "type": "uint64"
        },
        {
          "indexed": false,
          "internalType": "uint256",
          "name": "invoiceId",
          "type": "uint256"
        }
      ],
      "name": "CommitHash",
      "type": "event"
    },
    {
      "anonymous": false,
      "inputs": [
        {
          "indexed": false,
          "internalType": "address",
          "name": "debtor",
          "type": "address"
        },
        {
          "indexed": false,
          "internalType": "bytes32",
          "name": "dataHash",
          "type": "bytes32"
        },
        {
          "indexed": false,
          "internalType": "uint256",
          "name": "invoiceId",
          "type": "uint256"
        }
      ],
      "name": "ConfirmHash",
      "type": "event"
    },
    {
      "anonymous": false,
      "inputs": [
        {
          "indexed": false,
          "internalType": "uint256",
          "name": "_invoiceId",
          "type": "uint256"
        },
        {
          "indexed": false,
          "internalType": "string",
          "name": "_reason",
          "type": "string"
        }
      ],
      "name": "InvoiceRejected",
      "type": "event"
    },
    {
      "anonymous": false,
      "inputs": [
        {
          "indexed": false,
          "internalType": "uint256",
          "name": "_invoiceId",
          "type": "uint256"
        },
        {
          "indexed": false,
          "internalType": "int256",
          "name": "_amount",
          "type": "int256"
        }
      ],
      "name": "InvoiceSettled",
      "type": "event"
    },
    {
      "anonymous": false,
      "inputs": [
        {
          "indexed": false,
          "internalType": "uint256",
          "name": "_invoiceId",
          "type": "uint256"
        },
        {
          "indexed": false,
          "internalType": "enum BFactor.InvoiceState",
          "name": "_newState",
          "type": "uint8"
        }
      ],
      "name": "InvoiceStateChanged",
      "type": "event"
    },
    {
      "anonymous": false,
      "inputs": [
        {
          "indexed": false,
          "internalType": "uint256",
          "name": "_offerId",
          "type": "uint256"
        }
      ],
      "name": "OfferAccepted",
      "type": "event"
    },
    {
      "anonymous": false,
      "inputs": [
        {
          "indexed": false,
          "internalType": "uint256",
          "name": "_offerId",
          "type": "uint256"
        }
      ],
      "name": "OfferCreated",
      "type": "event"
    },
    {
      "anonymous": false,
      "inputs": [
        {
          "indexed": false,
          "internalType": "uint256",
          "name": "_offerId",
          "type": "uint256"
        },
        {
          "indexed": false,
          "internalType": "string",
          "name": "_reason",
          "type": "string"
        }
      ],
      "name": "OfferRejected",
      "type": "event"
    },
    {
      "anonymous": false,
      "inputs": [
        {
          "indexed": true,
          "internalType": "address",
          "name": "previousOwner",
          "type": "address"
        },
        {
          "indexed": true,
          "internalType": "address",
          "name": "newOwner",
          "type": "address"
        }
      ],
      "name": "OwnershipTransferred",
      "type": "event"
    },
    {
      "anonymous": false,
      "inputs": [
        {
          "indexed": false,
          "internalType": "uint256",
          "name": "_invoiceId",
          "type": "uint256"
        },
        {
          "indexed": false,
          "internalType": "int256",
          "name": "_amount",
          "type": "int256"
        }
      ],
      "name": "RemainingDeposited",
      "type": "event"
    },
    {
      "anonymous": false,
      "inputs": [
        {
          "indexed": true,
          "internalType": "bytes32",
          "name": "role",
          "type": "bytes32"
        },
        {
          "indexed": true,
          "internalType": "bytes32",
          "name": "previousAdminRole",
          "type": "bytes32"
        },
        {
          "indexed": true,
          "internalType": "bytes32",
          "name": "newAdminRole",
          "type": "bytes32"
        }
      ],
      "name": "RoleAdminChanged",
      "type": "event"
    },
    {
      "anonymous": false,
      "inputs": [
        {
          "indexed": true,
          "internalType": "bytes32",
          "name": "role",
          "type": "bytes32"
        },
        {
          "indexed": true,
          "internalType": "address",
          "name": "account",
          "type": "address"
        },
        {
          "indexed": true,
          "internalType": "address",
          "name": "sender",
          "type": "address"
        }
      ],
      "name": "RoleGranted",
      "type": "event"
    },
    {
      "anonymous": false,
      "inputs": [
        {
          "indexed": true,
          "internalType": "bytes32",
          "name": "role",
          "type": "bytes32"
        },
        {
          "indexed": true,
          "internalType": "address",
          "name": "account",
          "type": "address"
        },
        {
          "indexed": true,
          "internalType": "address",
          "name": "sender",
          "type": "address"
        }
      ],
      "name": "RoleRevoked",
      "type": "event"
    },
    {
      "inputs": [],
      "name": "BUSINESS_ROLE",
      "outputs": [
        {
          "internalType": "bytes32",
          "name": "",
          "type": "bytes32"
        }
      ],
      "stateMutability": "view",
      "type": "function",
      "constant": true
    },
    {
      "inputs": [],
      "name": "DEBTOR_ROLE",
      "outputs": [
        {
          "internalType": "bytes32",
          "name": "",
          "type": "bytes32"
        }
      ],
      "stateMutability": "view",
      "type": "function",
      "constant": true
    },
    {
      "inputs": [],
      "name": "DEFAULT_ADMIN_ROLE",
      "outputs": [
        {
          "internalType": "bytes32",
          "name": "",
          "type": "bytes32"
        }
      ],
      "stateMutability": "view",
      "type": "function",
      "constant": true
    },
    {
      "inputs": [],
      "name": "FACTOR_ROLE",
      "outputs": [
        {
          "internalType": "bytes32",
          "name": "",
          "type": "bytes32"
        }
      ],
      "stateMutability": "view",
      "type": "function",
      "constant": true
    },
    {
      "inputs": [
        {
          "internalType": "address",
          "name": "",
          "type": "address"
        }
      ],
      "name": "businesses",
      "outputs": [
        {
          "internalType": "uint256",
          "name": "Id",
          "type": "uint256"
        },
        {
          "internalType": "string",
          "name": "name",
          "type": "string"
        },
        {
          "internalType": "address",
          "name": "account",
          "type": "address"
        },
        {
          "internalType": "string",
          "name": "addressOfBusiness",
          "type": "string"
        },
        {
          "internalType": "string",
          "name": "telephone",
          "type": "string"
        },
        {
          "internalType": "string",
          "name": "email",
          "type": "string"
        }
      ],
      "stateMutability": "view",
      "type": "function",
      "constant": true
    },
    {
      "inputs": [],
      "name": "businessesCount",
      "outputs": [
        {
          "internalType": "uint256",
          "name": "",
          "type": "uint256"
        }
      ],
      "stateMutability": "view",
      "type": "function",
      "constant": true
    },
    {
      "inputs": [
        {
          "internalType": "uint256",
          "name": "",
          "type": "uint256"
        }
      ],
      "name": "commits",
      "outputs": [
        {
          "internalType": "bytes32",
          "name": "commit",
          "type": "bytes32"
        },
        {
          "internalType": "uint64",
          "name": "block",
          "type": "uint64"
        },
        {
          "internalType": "bool",
          "name": "revealed",
          "type": "bool"
        },
        {
          "internalType": "bool",
          "name": "confirmed",
          "type": "bool"
        },
        {
          "internalType": "address payable",
          "name": "owner",
          "type": "address"
        },
        {
          "internalType": "address",
          "name": "debtor",
          "type": "address"
        },
        {
          "internalType": "uint256",
          "name": "amount",
          "type": "uint256"
        },
        {
          "internalType": "uint256",
          "name": "invoiceID",
          "type": "uint256"
        }
      ],
      "stateMutability": "view",
      "type": "function",
      "constant": true
    },
    {
      "inputs": [],
      "name": "commitsCount",
      "outputs": [
        {
          "internalType": "uint256",
          "name": "",
          "type": "uint256"
        }
      ],
      "stateMutability": "view",
      "type": "function",
      "constant": true
    },
    {
      "inputs": [
        {
          "internalType": "uint256",
          "name": "",
          "type": "uint256"
        }
      ],
      "name": "debtors",
      "outputs": [
        {
          "internalType": "uint256",
          "name": "Id",
          "type": "uint256"
        },
        {
          "internalType": "string",
          "name": "name",
          "type": "string"
        },
        {
          "internalType": "address",
          "name": "account",
          "type": "address"
        },
        {
          "internalType": "string",
          "name": "addressOfDebtor",
          "type": "string"
        },
        {
          "internalType": "string",
          "name": "telephone",
          "type": "string"
        },
        {
          "internalType": "string",
          "name": "email",
          "type": "string"
        }
      ],
      "stateMutability": "view",
      "type": "function",
      "constant": true
    },
    {
      "inputs": [],
      "name": "debtorsCount",
      "outputs": [
        {
          "internalType": "uint256",
          "name": "",
          "type": "uint256"
        }
      ],
      "stateMutability": "view",
      "type": "function",
      "constant": true
    },
    {
      "inputs": [
        {
          "internalType": "address",
          "name": "",
          "type": "address"
        }
      ],
      "name": "factors",
      "outputs": [
        {
          "internalType": "uint256",
          "name": "Id",
          "type": "uint256"
        },
        {
          "internalType": "string",
          "name": "name",
          "type": "string"
        },
        {
          "internalType": "address",
          "name": "account",
          "type": "address"
        },
        {
          "internalType": "string",
          "name": "addressOfFactor",
          "type": "string"
        },
        {
          "internalType": "string",
          "name": "telephone",
          "type": "string"
        },
        {
          "internalType": "string",
          "name": "email",
          "type": "string"
        }
      ],
      "stateMutability": "view",
      "type": "function",
      "constant": true
    },
    {
      "inputs": [],
      "name": "factorsCount",
      "outputs": [
        {
          "internalType": "uint256",
          "name": "",
          "type": "uint256"
        }
      ],
      "stateMutability": "view",
      "type": "function",
      "constant": true
    },
    {
      "inputs": [
        {
          "internalType": "bytes32",
          "name": "role",
          "type": "bytes32"
        }
      ],
      "name": "getRoleAdmin",
      "outputs": [
        {
          "internalType": "bytes32",
          "name": "",
          "type": "bytes32"
        }
      ],
      "stateMutability": "view",
      "type": "function",
      "constant": true
    },
    {
      "inputs": [
        {
          "internalType": "bytes32",
          "name": "role",
          "type": "bytes32"
        },
        {
          "internalType": "uint256",
          "name": "index",
          "type": "uint256"
        }
      ],
      "name": "getRoleMember",
      "outputs": [
        {
          "internalType": "address",
          "name": "",
          "type": "address"
        }
      ],
      "stateMutability": "view",
      "type": "function",
      "constant": true
    },
    {
      "inputs": [
        {
          "internalType": "bytes32",
          "name": "role",
          "type": "bytes32"
        }
      ],
      "name": "getRoleMemberCount",
      "outputs": [
        {
          "internalType": "uint256",
          "name": "",
          "type": "uint256"
        }
      ],
      "stateMutability": "view",
      "type": "function",
      "constant": true
    },
    {
      "inputs": [
        {
          "internalType": "bytes32",
          "name": "role",
          "type": "bytes32"
        },
        {
          "internalType": "address",
          "name": "account",
          "type": "address"
        }
      ],
      "name": "grantRole",
      "outputs": [],
      "stateMutability": "nonpayable",
      "type": "function"
    },
    {
      "inputs": [
        {
          "internalType": "bytes32",
          "name": "role",
          "type": "bytes32"
        },
        {
          "internalType": "address",
          "name": "account",
          "type": "address"
        }
      ],
      "name": "hasRole",
      "outputs": [
        {
          "internalType": "bool",
          "name": "",
          "type": "bool"
        }
      ],
      "stateMutability": "view",
      "type": "function",
      "constant": true
    },
    {
      "inputs": [
        {
          "internalType": "uint256",
          "name": "",
          "type": "uint256"
        }
      ],
      "name": "invoices",
      "outputs": [
        {
          "internalType": "uint256",
          "name": "invoiceId",
          "type": "uint256"
        },
        {
          "internalType": "address payable",
          "name": "owner",
          "type": "address"
        },
        {
          "internalType": "address",
          "name": "issuedTo",
          "type": "address"
        },
        {
          "internalType": "uint256",
          "name": "amount",
          "type": "uint256"
        },
        {
          "internalType": "address",
          "name": "paidTo",
          "type": "address"
        },
        {
          "internalType": "enum BFactor.InvoiceState",
          "name": "state",
          "type": "uint8"
        },
        {
          "internalType": "uint256",
          "name": "invoiceDate",
          "type": "uint256"
        }
      ],
      "stateMutability": "view",
      "type": "function",
      "constant": true
    },
    {
      "inputs": [],
      "name": "invoicesCount",
      "outputs": [
        {
          "internalType": "uint256",
          "name": "",
          "type": "uint256"
        }
      ],
      "stateMutability": "view",
      "type": "function",
      "constant": true
    },
    {
      "inputs": [],
      "name": "name",
      "outputs": [
        {
          "internalType": "string",
          "name": "",
          "type": "string"
        }
      ],
      "stateMutability": "view",
      "type": "function",
      "constant": true
    },
    {
      "inputs": [
        {
          "internalType": "uint256",
          "name": "",
          "type": "uint256"
        }
      ],
      "name": "offers",
      "outputs": [
        {
          "internalType": "uint256",
          "name": "invoiceId",
          "type": "uint256"
        },
        {
          "internalType": "uint256",
          "name": "advanceRate",
          "type": "uint256"
        },
        {
          "internalType": "uint256",
          "name": "discountRate",
          "type": "uint256"
        },
        {
          "internalType": "enum BFactor.OfferState",
          "name": "state",
          "type": "uint8"
        },
        {
          "internalType": "address payable",
          "name": "owner",
          "type": "address"
        }
      ],
      "stateMutability": "view",
      "type": "function",
      "constant": true
    },
    {
      "inputs": [],
      "name": "offersCount",
      "outputs": [
        {
          "internalType": "uint256",
          "name": "",
          "type": "uint256"
        }
      ],
      "stateMutability": "view",
      "type": "function",
      "constant": true
    },
    {
      "inputs": [],
      "name": "owner",
      "outputs": [
        {
          "internalType": "address",
          "name": "",
          "type": "address"
        }
      ],
      "stateMutability": "view",
      "type": "function",
      "constant": true
    },
    {
      "inputs": [
        {
          "internalType": "address",
          "name": "dest",
          "type": "address"
        }
      ],
      "name": "payments",
      "outputs": [
        {
          "internalType": "uint256",
          "name": "",
          "type": "uint256"
        }
      ],
      "stateMutability": "view",
      "type": "function",
      "constant": true
    },
    {
      "inputs": [],
      "name": "renounceOwnership",
      "outputs": [],
      "stateMutability": "nonpayable",
      "type": "function"
    },
    {
      "inputs": [
        {
          "internalType": "bytes32",
          "name": "role",
          "type": "bytes32"
        },
        {
          "internalType": "address",
          "name": "account",
          "type": "address"
        }
      ],
      "name": "renounceRole",
      "outputs": [],
      "stateMutability": "nonpayable",
      "type": "function"
    },
    {
      "inputs": [
        {
          "internalType": "bytes32",
          "name": "role",
          "type": "bytes32"
        },
        {
          "internalType": "address",
          "name": "account",
          "type": "address"
        }
      ],
      "name": "revokeRole",
      "outputs": [],
      "stateMutability": "nonpayable",
      "type": "function"
    },
    {
      "inputs": [
        {
          "internalType": "address",
          "name": "newOwner",
          "type": "address"
        }
      ],
      "name": "transferOwnership",
      "outputs": [],
      "stateMutability": "nonpayable",
      "type": "function"
    },
    {
      "inputs": [
        {
          "internalType": "address payable",
          "name": "payee",
          "type": "address"
        }
      ],
      "name": "withdrawPayments",
      "outputs": [],
      "stateMutability": "nonpayable",
      "type": "function"
    },
    {
      "inputs": [
        {
          "internalType": "string",
          "name": "_name",
          "type": "string"
        },
        {
          "internalType": "address",
          "name": "_account",
          "type": "address"
        },
        {
          "internalType": "string",
          "name": "_addressOfBusiness",
          "type": "string"
        },
        {
          "internalType": "string",
          "name": "_telephone",
          "type": "string"
        },
        {
          "internalType": "string",
          "name": "_email",
          "type": "string"
        }
      ],
      "name": "createBusiness",
      "outputs": [],
      "stateMutability": "nonpayable",
      "type": "function"
    },
    {
      "inputs": [
        {
          "internalType": "string",
          "name": "_name",
          "type": "string"
        },
        {
          "internalType": "address",
          "name": "_account",
          "type": "address"
        },
        {
          "internalType": "string",
          "name": "_addressOfDebtor",
          "type": "string"
        },
        {
          "internalType": "string",
          "name": "_telephone",
          "type": "string"
        },
        {
          "internalType": "string",
          "name": "_email",
          "type": "string"
        }
      ],
      "name": "createDebtor",
      "outputs": [],
      "stateMutability": "nonpayable",
      "type": "function"
    },
    {
      "inputs": [
        {
          "internalType": "string",
          "name": "_name",
          "type": "string"
        },
        {
          "internalType": "address",
          "name": "_account",
          "type": "address"
        },
        {
          "internalType": "string",
          "name": "_addressOfFactor",
          "type": "string"
        },
        {
          "internalType": "string",
          "name": "_telephone",
          "type": "string"
        },
        {
          "internalType": "string",
          "name": "_email",
          "type": "string"
        }
      ],
      "name": "createFactor",
      "outputs": [],
      "stateMutability": "nonpayable",
      "type": "function"
    },
    {
      "inputs": [
        {
          "internalType": "string",
          "name": "_invoiceData",
          "type": "string"
        }
      ],
      "name": "getInvoiceHash",
      "outputs": [
        {
          "internalType": "bytes32",
          "name": "hashedInvoiceData",
          "type": "bytes32"
        }
      ],
      "stateMutability": "view",
      "type": "function",
      "constant": true
    },
    {
      "inputs": [
        {
          "internalType": "uint16",
          "name": "_invoiceYear",
          "type": "uint16"
        },
        {
          "internalType": "uint8",
          "name": "_invoiceMonth",
          "type": "uint8"
        },
        {
          "internalType": "uint8",
          "name": "_invoiceDay",
          "type": "uint8"
        }
      ],
      "name": "getInvoiceDateTimeStamp",
      "outputs": [
        {
          "internalType": "uint256",
          "name": "",
          "type": "uint256"
        }
      ],
      "stateMutability": "view",
      "type": "function",
      "constant": true
    },
    {
      "inputs": [
        {
          "internalType": "address",
          "name": "_invIssuer",
          "type": "address"
        },
        {
          "internalType": "address",
          "name": "_invDebtor",
          "type": "address"
        },
        {
          "internalType": "uint256",
          "name": "_invAmount",
          "type": "uint256"
        },
        {
          "internalType": "uint256",
          "name": "_invDate",
          "type": "uint256"
        }
      ],
      "name": "getInvoiceDataEncoded",
      "outputs": [
        {
          "internalType": "bytes",
          "name": "",
          "type": "bytes"
        }
      ],
      "stateMutability": "view",
      "type": "function",
      "constant": true
    },
    {
      "inputs": [],
      "name": "createInvoiceId",
      "outputs": [
        {
          "internalType": "uint256",
          "name": "",
          "type": "uint256"
        }
      ],
      "stateMutability": "view",
      "type": "function",
      "constant": true
    },
    {
      "inputs": [
        {
          "internalType": "address payable",
          "name": "_owner",
          "type": "address"
        },
        {
          "internalType": "address",
          "name": "_debtor",
          "type": "address"
        },
        {
          "internalType": "uint256",
          "name": "_amount",
          "type": "uint256"
        },
        {
          "internalType": "bytes32",
          "name": "_dataHash",
          "type": "bytes32"
        },
        {
          "internalType": "uint256",
          "name": "_invoiceId",
          "type": "uint256"
        }
      ],
      "name": "commit",
      "outputs": [],
      "stateMutability": "nonpayable",
      "type": "function"
    },
    {
      "inputs": [
        {
          "internalType": "bytes32",
          "name": "_hashedInvoiceData",
          "type": "bytes32"
        },
        {
          "internalType": "uint256",
          "name": "_invoiceId",
          "type": "uint256"
        }
      ],
      "name": "acknowledgeInvoice",
      "outputs": [],
      "stateMutability": "nonpayable",
      "type": "function"
    },
    {
      "inputs": [
        {
          "internalType": "uint256",
          "name": "_invoiceId",
          "type": "uint256"
        },
        {
          "internalType": "uint256",
          "name": "_commitID",
          "type": "uint256"
        },
        {
          "internalType": "uint16",
          "name": "_invoiceYear",
          "type": "uint16"
        },
        {
          "internalType": "uint8",
          "name": "_invoiceMonth",
          "type": "uint8"
        },
        {
          "internalType": "uint8",
          "name": "_invoiceDay",
          "type": "uint8"
        }
      ],
      "name": "createInvoice",
      "outputs": [],
      "stateMutability": "nonpayable",
      "type": "function"
    },
    {
      "inputs": [
        {
          "internalType": "uint256",
          "name": "_invoiceId",
          "type": "uint256"
        }
      ],
      "name": "offerInvoice",
      "outputs": [],
      "stateMutability": "nonpayable",
      "type": "function"
    },
    {
      "inputs": [
        {
          "internalType": "uint256",
          "name": "_invoiceId",
          "type": "uint256"
        }
      ],
      "name": "acceptInvoice",
      "outputs": [],
      "stateMutability": "nonpayable",
      "type": "function"
    },
    {
      "inputs": [
        {
          "internalType": "uint256",
          "name": "_invoiceId",
          "type": "uint256"
        },
        {
          "internalType": "string",
          "name": "_reason",
          "type": "string"
        }
      ],
      "name": "rejectInvoice",
      "outputs": [],
      "stateMutability": "nonpayable",
      "type": "function"
    },
    {
      "inputs": [
        {
          "internalType": "uint256",
          "name": "_invoiceId",
          "type": "uint256"
        },
        {
          "internalType": "uint256",
          "name": "_advanceRate",
          "type": "uint256"
        },
        {
          "internalType": "uint256",
          "name": "_discountRate",
          "type": "uint256"
        }
      ],
      "name": "createOffer",
      "outputs": [],
      "stateMutability": "nonpayable",
      "type": "function"
    },
    {
      "inputs": [
        {
          "internalType": "uint256",
          "name": "_offerId",
          "type": "uint256"
        }
      ],
      "name": "acceptOffer",
      "outputs": [],
      "stateMutability": "nonpayable",
      "type": "function"
    },
    {
      "inputs": [
        {
          "internalType": "uint256",
          "name": "_offerId",
          "type": "uint256"
        },
        {
          "internalType": "string",
          "name": "_reason",
          "type": "string"
        }
      ],
      "name": "rejectOffer",
      "outputs": [],
      "stateMutability": "nonpayable",
      "type": "function"
    },
    {
      "inputs": [
        {
          "internalType": "uint256",
          "name": "_invoiceId",
          "type": "uint256"
        }
      ],
      "name": "sendAdvanceRate",
      "outputs": [],
      "stateMutability": "payable",
      "type": "function",
      "payable": true
    },
    {
      "inputs": [
        {
          "internalType": "uint256",
          "name": "_invoiceId",
          "type": "uint256"
        }
      ],
      "name": "withdrawAdvanceRate",
      "outputs": [],
      "stateMutability": "nonpayable",
      "type": "function"
    },
    {
      "inputs": [
        {
          "internalType": "uint256",
          "name": "_invoiceId",
          "type": "uint256"
        }
      ],
      "name": "getOfferByInvoiceId",
      "outputs": [
        {
          "internalType": "uint256",
          "name": "",
          "type": "uint256"
        }
      ],
      "stateMutability": "view",
      "type": "function",
      "constant": true
    },
    {
      "inputs": [
        {
          "internalType": "uint256",
          "name": "_invoiceId",
          "type": "uint256"
        }
      ],
      "name": "settleInvoice",
      "outputs": [],
      "stateMutability": "nonpayable",
      "type": "function"
    },
    {
      "inputs": [
        {
          "internalType": "uint256",
          "name": "_invoiceId",
          "type": "uint256"
        }
      ],
      "name": "sendRemaining",
      "outputs": [],
      "stateMutability": "payable",
      "type": "function",
      "payable": true
    },
    {
      "inputs": [],
      "name": "getCount",
      "outputs": [
        {
          "internalType": "uint256",
          "name": "",
          "type": "uint256"
        },
        {
          "internalType": "uint256",
          "name": "",
          "type": "uint256"
        }
      ],
      "stateMutability": "view",
      "type": "function",
      "constant": true
    },
    {
      "inputs": [
        {
          "internalType": "bytes32",
          "name": "data",
          "type": "bytes32"
        }
      ],
      "name": "getHash",
      "outputs": [
        {
          "internalType": "bytes32",
          "name": "",
          "type": "bytes32"
        }
      ],
      "stateMutability": "view",
      "type": "function",
      "constant": true
    },
    {
      "inputs": [
        {
          "internalType": "string",
          "name": "data",
          "type": "string"
        }
      ],
      "name": "getHashFromString",
      "outputs": [
        {
          "internalType": "bytes32",
          "name": "",
          "type": "bytes32"
        }
      ],
      "stateMutability": "view",
      "type": "function",
      "constant": true
    },
    {
      "inputs": [
        {
          "internalType": "string",
          "name": "source",
          "type": "string"
        }
      ],
      "name": "stringToBytes32",
      "outputs": [
        {
          "internalType": "bytes32",
          "name": "result",
          "type": "bytes32"
        }
      ],
      "stateMutability": "pure",
      "type": "function",
      "constant": true
    },
    {
      "inputs": [],
      "name": "getCommitsCount",
      "outputs": [
        {
          "internalType": "uint256",
          "name": "",
          "type": "uint256"
        }
      ],
      "stateMutability": "view",
      "type": "function",
      "constant": true
    },
    {
      "inputs": [
        {
          "internalType": "uint256",
          "name": "_id",
          "type": "uint256"
        }
      ],
      "name": "getCommitOwner",
      "outputs": [
        {
          "internalType": "address",
          "name": "",
          "type": "address"
        }
      ],
      "stateMutability": "view",
      "type": "function",
      "constant": true
    },
    {
      "inputs": [
        {
          "internalType": "uint256",
          "name": "_id",
          "type": "uint256"
        }
      ],
      "name": "getDebtorName",
      "outputs": [
        {
          "internalType": "string",
          "name": "",
          "type": "string"
        }
      ],
      "stateMutability": "view",
      "type": "function",
      "constant": true
    },
    {
      "inputs": [
        {
          "internalType": "address",
          "name": "_debtorAddress",
          "type": "address"
        }
      ],
      "name": "getDebtorNameByAddress",
      "outputs": [
        {
          "internalType": "string",
          "name": "",
          "type": "string"
        }
      ],
      "stateMutability": "view",
      "type": "function",
      "constant": true
    },
    {
      "inputs": [
        {
          "internalType": "uint256",
          "name": "_id",
          "type": "uint256"
        }
      ],
      "name": "getDebtorAddress",
      "outputs": [
        {
          "internalType": "address",
          "name": "",
          "type": "address"
        }
      ],
      "stateMutability": "view",
      "type": "function",
      "constant": true
    },
    {
      "inputs": [
        {
          "internalType": "uint256",
          "name": "_invoiceID",
          "type": "uint256"
        }
      ],
      "name": "getInvoiceAmount",
      "outputs": [
        {
          "internalType": "uint256",
          "name": "",
          "type": "uint256"
        }
      ],
      "stateMutability": "view",
      "type": "function",
      "constant": true
    },
    {
      "inputs": [
        {
          "internalType": "uint256",
          "name": "_invoiceID",
          "type": "uint256"
        }
      ],
      "name": "getInvoiceOwner",
      "outputs": [
        {
          "internalType": "address",
          "name": "",
          "type": "address"
        }
      ],
      "stateMutability": "view",
      "type": "function",
      "constant": true
    }
  ],
  "bytecode": "0x608060405260405162005b8e38038062005b8e833981810160405260208110156200002957600080fd5b81019080805160405193929190846401000000008211156200004a57600080fd5b9083019060208201858111156200006057600080fd5b82516401000000008111828201881017156200007b57600080fd5b82525081516020918201929091019080838360005b83811015620000aa57818101518382015260200162000090565b50505050905090810190601f168015620000d85780820380516001836020036101000a031916815260200191505b506040525050506000620000f16200020e60201b60201c565b600080546001600160a01b0319166001600160a01b0383169081178255604051929350917f8be0079c531659141344cd1fd0a4f28419497f9722a3daafe3b4186f6b6457e0908290a350604051620001499062000213565b604051809103906000f08015801562000166573d6000803e3d6000fd5b50600280546001600160a01b0319166001600160a01b039290921691909117905580516200019c90600390602084019062000221565b506000600b819055600c819055600d819055600e819055600f819055601055604051620001c990620002a6565b604051809103906000f080158015620001e6573d6000803e3d6000fd5b50600480546001600160a01b0319166001600160a01b039290921691909117905550620002d1565b335b90565b6107588062004b2883390190565b828054600181600116156101000203166002900490600052602060002090601f016020900481019282601f106200026457805160ff191683800117855562000294565b8280016001018555821562000294579182015b828111156200029457825182559160200191906001019062000277565b50620002a2929150620002b4565b5090565b61090e806200528083390190565b6200021091905b80821115620002a25760008155600101620002bb565b61484780620002e16000396000f3fe6080604052600436106103225760003560e01c80638a72ea6a116101a7578063c7c4a615116100ed578063dc35a90011610090578063dc35a90014611510578063df92dfab14611546578063e1a30f2414611797578063e2982c21146117ac578063f2fde38b146117df578063f3c3d21514611812578063f74c5d921461183c578063fc746ef7146118f457610322565b8063c7c4a615146112ec578063c815729d14611369578063ca15c87314611393578063cfb51928146113bd578063d1a139731461146e578063d1b9169714611483578063d547741f146114c2578063d7b34271146114fb57610322565b8063a87d942c11610155578063a87d942c14610f6b578063acca54b814610f99578063b31e26e414610fc3578063b7825b0d14610ff6578063b7a7f49314611026578063bec02acc14611277578063c3dbfbfc1461128c578063c6b19b7a146112a157610322565b80638a72ea6a14610e125780638da5cb5b14610e855780639010d07c14610e9a57806391d1485414610eca5780639f8bc0ce14610f17578063a217fddf14610f41578063a6bf748314610f5657610322565b80634e6d14051161026c57806378b8c9ce1161021a57806378b8c9ce14610bec5780637904936a14610c015780637bb1ad7514610c165780637d50fe9b14610c405780638428fe5714610cf157806385fee74114610d1b578063869871bf14610dd357806388347c6814610dfd57610322565b80634e6d1405146108755780634f07fc24146109235780635b94446c14610b205780635bb64e9514610b4a57806361a5403414610b74578063715018a614610b915780637208b19014610ba657610322565b806331b3eb94116102d457806331b3eb94146104cc5780633207247b146104ff57806336568abe146105145780633cf5040a1461054d5780633d8aef0c146105775780633e63e5a11461058c5780633f180b87146107dd57806344d2eee71461082c57610322565b8063059552971461032757806306fdde03146103635780631287910d146103ed57806316fa291c1461040c5780632151ccc814610436578063248a9ca3146104695780632f2ff15d14610493575b600080fd5b34801561033357600080fd5b506103516004803603602081101561034a57600080fd5b50356119a5565b60408051918252519081900360200190f35b34801561036f57600080fd5b506103786119bd565b6040805160208082528351818301528351919283929083019185019080838360005b838110156103b257818101518382015260200161039a565b50505050905090810190601f1680156103df5780820380516001836020036101000a031916815260200191505b509250505060405180910390f35b61040a6004803603602081101561040357600080fd5b5035611a4b565b005b34801561041857600080fd5b5061040a6004803603602081101561042f57600080fd5b5035611c54565b34801561044257600080fd5b506103786004803603602081101561045957600080fd5b50356001600160a01b0316611d4e565b34801561047557600080fd5b506103516004803603602081101561048c57600080fd5b503561203a565b34801561049f57600080fd5b5061040a600480360360408110156104b657600080fd5b50803590602001356001600160a01b031661204f565b3480156104d857600080fd5b5061040a600480360360208110156104ef57600080fd5b50356001600160a01b03166120b7565b34801561050b57600080fd5b50610351612120565b34801561052057600080fd5b5061040a6004803603604081101561053757600080fd5b50803590602001356001600160a01b0316612145565b34801561055957600080fd5b506103516004803603602081101561057057600080fd5b50356121a6565b34801561058357600080fd5b506103516121da565b34801561059857600080fd5b5061040a600480360360a08110156105af57600080fd5b810190602081018135600160201b8111156105c957600080fd5b8201836020820111156105db57600080fd5b803590602001918460018302840111600160201b831117156105fc57600080fd5b91908080601f01602080910402602001604051908101604052809392919081815260200183838082843760009201919091525092956001600160a01b03853516959094909350604081019250602001359050600160201b81111561065f57600080fd5b82018360208201111561067157600080fd5b803590602001918460018302840111600160201b8311171561069257600080fd5b91908080601f0160208091040260200160405190810160405280939291908181526020018383808284376000920191909152509295949360208101935035915050600160201b8111156106e457600080fd5b8201836020820111156106f657600080fd5b803590602001918460018302840111600160201b8311171561071757600080fd5b91908080601f0160208091040260200160405190810160405280939291908181526020018383808284376000920191909152509295949360208101935035915050600160201b81111561076957600080fd5b82018360208201111561077b57600080fd5b803590602001918460018302840111600160201b8311171561079c57600080fd5b91908080601f0160208091040260200160405190810160405280939291908181526020018383808284376000920191909152509295506121e0945050505050565b3480156107e957600080fd5b5061040a600480360360a081101561080057600080fd5b506001600160a01b03813581169160208101359091169060408101359060608101359060800135612283565b34801561083857600080fd5b506103786004803603608081101561084f57600080fd5b506001600160a01b038135811691602081013590911690604081013590606001356123b7565b34801561088157600080fd5b5061089f6004803603602081101561089857600080fd5b5035612407565b60405180888152602001876001600160a01b03166001600160a01b03168152602001866001600160a01b03166001600160a01b03168152602001858152602001846001600160a01b03166001600160a01b0316815260200183600681111561090357fe5b60ff16815260200182815260200197505050505050505060405180910390f35b34801561092f57600080fd5b506109566004803603602081101561094657600080fd5b50356001600160a01b0316612458565b6040518087815260200180602001866001600160a01b03166001600160a01b0316815260200180602001806020018060200185810385528a818151815260200191508051906020019080838360005b838110156109bd5781810151838201526020016109a5565b50505050905090810190601f1680156109ea5780820380516001836020036101000a031916815260200191505b5085810384528851815288516020918201918a019080838360005b83811015610a1d578181015183820152602001610a05565b50505050905090810190601f168015610a4a5780820380516001836020036101000a031916815260200191505b50858103835287518152875160209182019189019080838360005b83811015610a7d578181015183820152602001610a65565b50505050905090810190601f168015610aaa5780820380516001836020036101000a031916815260200191505b50858103825286518152865160209182019188019080838360005b83811015610add578181015183820152602001610ac5565b50505050905090810190601f168015610b0a5780820380516001836020036101000a031916815260200191505b509a505050505050505050505060405180910390f35b348015610b2c57600080fd5b5061040a60048036036020811015610b4357600080fd5b50356126c1565b348015610b5657600080fd5b5061040a60048036036020811015610b6d57600080fd5b5035612836565b61040a60048036036020811015610b8a57600080fd5b50356129b5565b348015610b9d57600080fd5b5061040a612b94565b348015610bb257600080fd5b50610bd060048036036020811015610bc957600080fd5b5035612c36565b604080516001600160a01b039092168252519081900360200190f35b348015610bf857600080fd5b50610351612c54565b348015610c0d57600080fd5b50610351612c5b565b348015610c2257600080fd5b5061035160048036036020811015610c3957600080fd5b5035612c61565b348015610c4c57600080fd5b5061035160048036036020811015610c6357600080fd5b810190602081018135600160201b811115610c7d57600080fd5b820183602082011115610c8f57600080fd5b803590602001918460018302840111600160201b83111715610cb057600080fd5b91908080601f016020809104026020016040519081016040528093929190818152602001838380828437600092019190915250929550612ca1945050505050565b348015610cfd57600080fd5b50610bd060048036036020811015610d1457600080fd5b5035612cf6565b348015610d2757600080fd5b5061040a60048036036040811015610d3e57600080fd5b81359190810190604081016020820135600160201b811115610d5f57600080fd5b820183602082011115610d7157600080fd5b803590602001918460018302840111600160201b83111715610d9257600080fd5b91908080601f016020809104026020016040519081016040528093929190818152602001838380828437600092019190915250929550612d14945050505050565b348015610ddf57600080fd5b5061095660048036036020811015610df657600080fd5b5035612ed2565b348015610e0957600080fd5b50610351612f44565b348015610e1e57600080fd5b50610e3c60048036036020811015610e3557600080fd5b5035612f4a565b60405180868152602001858152602001848152602001836001811115610e5e57fe5b60ff1681526001600160a01b03909216602083015250604080519182900301945092505050f35b348015610e9157600080fd5b50610bd0612f84565b348015610ea657600080fd5b50610bd060048036036040811015610ebd57600080fd5b5080359060200135612f93565b348015610ed657600080fd5b50610f0360048036036040811015610eed57600080fd5b50803590602001356001600160a01b0316612fba565b604080519115158252519081900360200190f35b348015610f2357600080fd5b50610bd060048036036020811015610f3a57600080fd5b5035612fd8565b348015610f4d57600080fd5b50610351612ffd565b348015610f6257600080fd5b50610351613002565b348015610f7757600080fd5b50610f80613008565b6040805192835260208301919091528051918290030190f35b348015610fa557600080fd5b5061037860048036036020811015610fbc57600080fd5b5035613012565b348015610fcf57600080fd5b5061095660048036036020811015610fe657600080fd5b50356001600160a01b03166130ca565b34801561100257600080fd5b5061040a6004803603604081101561101957600080fd5b508035906020013561313c565b34801561103257600080fd5b5061040a600480360360a081101561104957600080fd5b810190602081018135600160201b81111561106357600080fd5b82018360208201111561107557600080fd5b803590602001918460018302840111600160201b8311171561109657600080fd5b91908080601f01602080910402602001604051908101604052809392919081815260200183838082843760009201919091525092956001600160a01b03853516959094909350604081019250602001359050600160201b8111156110f957600080fd5b82018360208201111561110b57600080fd5b803590602001918460018302840111600160201b8311171561112c57600080fd5b91908080601f0160208091040260200160405190810160405280939291908181526020018383808284376000920191909152509295949360208101935035915050600160201b81111561117e57600080fd5b82018360208201111561119057600080fd5b803590602001918460018302840111600160201b831117156111b157600080fd5b91908080601f0160208091040260200160405190810160405280939291908181526020018383808284376000920191909152509295949360208101935035915050600160201b81111561120357600080fd5b82018360208201111561121557600080fd5b803590602001918460018302840111600160201b8311171561123657600080fd5b91908080601f016020809104026020016040519081016040528093929190818152602001838380828437600092019190915250929550613254945050505050565b34801561128357600080fd5b506103516132f7565b34801561129857600080fd5b506103516132fd565b3480156112ad57600080fd5b5061040a600480360360a08110156112c457600080fd5b5080359060208101359061ffff6040820135169060ff60608201358116916080013516613303565b3480156112f857600080fd5b506113166004803603602081101561130f57600080fd5b50356134bf565b6040805198895267ffffffffffffffff90971660208901529415158787015292151560608701526001600160a01b0391821660808701521660a085015260c084015260e083015251908190036101000190f35b34801561137557600080fd5b5061040a6004803603602081101561138c57600080fd5b5035613522565b34801561139f57600080fd5b50610351600480360360208110156113b657600080fd5b50356136d3565b3480156113c957600080fd5b50610351600480360360208110156113e057600080fd5b810190602081018135600160201b8111156113fa57600080fd5b82018360208201111561140c57600080fd5b803590602001918460018302840111600160201b8311171561142d57600080fd5b91908080601f0160208091040260200160405190810160405280939291908181526020018383808284376000920191909152509295506136ea945050505050565b34801561147a57600080fd5b50610351613708565b34801561148f57600080fd5b50610351600480360360608110156114a657600080fd5b5061ffff8135169060ff6020820135811691604001351661372b565b3480156114ce57600080fd5b5061040a600480360360408110156114e557600080fd5b50803590602001356001600160a01b03166137c3565b34801561150757600080fd5b5061035161381c565b34801561151c57600080fd5b5061040a6004803603606081101561153357600080fd5b5080359060208101359060400135613899565b34801561155257600080fd5b5061040a600480360360a081101561156957600080fd5b810190602081018135600160201b81111561158357600080fd5b82018360208201111561159557600080fd5b803590602001918460018302840111600160201b831117156115b657600080fd5b91908080601f01602080910402602001604051908101604052809392919081815260200183838082843760009201919091525092956001600160a01b03853516959094909350604081019250602001359050600160201b81111561161957600080fd5b82018360208201111561162b57600080fd5b803590602001918460018302840111600160201b8311171561164c57600080fd5b91908080601f0160208091040260200160405190810160405280939291908181526020018383808284376000920191909152509295949360208101935035915050600160201b81111561169e57600080fd5b8201836020820111156116b057600080fd5b803590602001918460018302840111600160201b831117156116d157600080fd5b91908080601f0160208091040260200160405190810160405280939291908181526020018383808284376000920191909152509295949360208101935035915050600160201b81111561172357600080fd5b82018360208201111561173557600080fd5b803590602001918460018302840111600160201b8311171561175657600080fd5b91908080601f0160208091040260200160405190810160405280939291908181526020018383808284376000920191909152509295506139e1945050505050565b3480156117a357600080fd5b50610351613a84565b3480156117b857600080fd5b50610351600480360360208110156117cf57600080fd5b50356001600160a01b0316613aa7565b3480156117eb57600080fd5b5061040a6004803603602081101561180257600080fd5b50356001600160a01b0316613b2a565b34801561181e57600080fd5b5061040a6004803603602081101561183557600080fd5b5035613c22565b34801561184857600080fd5b5061040a6004803603604081101561185f57600080fd5b81359190810190604081016020820135600160201b81111561188057600080fd5b82018360208201111561189257600080fd5b803590602001918460018302840111600160201b831117156118b357600080fd5b91908080601f016020809104026020016040519081016040528093929190818152602001838380828437600092019190915250929550613d38945050505050565b34801561190057600080fd5b506103516004803603602081101561191757600080fd5b810190602081018135600160201b81111561193157600080fd5b82018360208201111561194357600080fd5b803590602001918460018302840111600160201b8311171561196457600080fd5b91908080601f016020809104026020016040519081016040528093929190818152602001838380828437600092019190915250929550613e60945050505050565b6000818152600960205260409020600301545b919050565b6003805460408051602060026001851615610100026000190190941693909304601f81018490048402820184019092528181529291830182828015611a435780601f10611a1857610100808354040283529160200191611a43565b820191906000526020600020905b815481529060010190602001808311611a2657829003601f168201915b505050505081565b604080516a464143544f525f524f4c4560a81b8152905190819003600b019020611a759033612fba565b611ab05760405162461bcd60e51b81526004018080602001828103825260238152602001806146c96023913960400191505060405180910390fd5b6005600082815260096020526040902060040154600160a01b900460ff166006811115611ad957fe5b14611b155760405162461bcd60e51b815260040180806020018281038252602d81526020018061478e602d913960400191505060405180910390fd5b6000611b2082612c61565b6000818152600a602052604090206003015490915061010090046001600160a01b03163314611b805760405162461bcd60e51b81526004018080602001828103825260378152602001806146ec6037913960400191505060405180910390fd5b6000818152600a60209081526040808320600101548584526009909252822060030154611bb291606491025b04613e6b565b604080518481526020810183905281519293507f07c9bfbb98be32691743402eb39b5078286dd8de54762068325f82318bb96ad3929081900390910190a16000838152600960205260409020600190810154611c19916001600160a01b0390911690613eb3565b336108fc611c2683613f21565b6040518115909202916000818181858888f19350505050158015611c4e573d6000803e3d6000fd5b50505050565b604080516c425553494e4553535f524f4c4560981b8152905190819003600d019020611c809033612fba565b611cbb5760405162461bcd60e51b81526004018080602001828103825260258152602001806145846025913960400191505060405180910390fd5b6000818152600960205260409020600101546001600160a01b03163314611d135760405162461bcd60e51b815260040180806020018281038252603081526020018061475e6030913960400191505060405180910390fd5b6000611d1e82612c61565b6000818152600a6020526040902060030154909150611d4a9061010090046001600160a01b03166120b7565b5050565b606060005b600c54811161203457611d6461441c565b600760008381526020019081526020016000206040518060c001604052908160008201548152602001600182018054600181600116156101000203166002900480601f016020809104026020016040519081016040528092919081815260200182805460018160011615610100020316600290048015611e255780601f10611dfa57610100808354040283529160200191611e25565b820191906000526020600020905b815481529060010190602001808311611e0857829003601f168201915b50505091835250506002828101546001600160a01b031660208084019190915260038401805460408051601f60001960018516156101000201909316959095049182018490048402850184018152818552909401939091830182828015611ecd5780601f10611ea257610100808354040283529160200191611ecd565b820191906000526020600020905b815481529060010190602001808311611eb057829003601f168201915b505050918352505060048201805460408051602060026001851615610100026000190190941693909304601f8101849004840282018401909252818152938201939291830182828015611f615780601f10611f3657610100808354040283529160200191611f61565b820191906000526020600020905b815481529060010190602001808311611f4457829003601f168201915b505050918352505060058201805460408051602060026001851615610100026000190190941693909304601f8101849004840282018401909252818152938201939291830182828015611ff55780601f10611fca57610100808354040283529160200191611ff5565b820191906000526020600020905b815481529060010190602001808311611fd857829003601f168201915b5050505050815250509050836001600160a01b031681604001516001600160a01b0316141561202b576020015191506119b89050565b50600101611d53565b50919050565b60009081526001602052604090206002015490565b6000828152600160205260409020600201546120729061206d613f78565b612fba565b6120ad5760405162461bcd60e51b815260040180806020018281038252602f81526020018061450c602f913960400191505060405180910390fd5b611d4a8282613f7c565b600254604080516351cff8d960e01b81526001600160a01b038481166004830152915191909216916351cff8d991602480830192600092919082900301818387803b15801561210557600080fd5b505af1158015612119573d6000803e3d6000fd5b5050505050565b604080516c425553494e4553535f524f4c4560981b8152905190819003600d01902081565b61214d613f78565b6001600160a01b0316816001600160a01b03161461219c5760405162461bcd60e51b815260040180806020018281038252602f8152602001806147e3602f913960400191505060405180910390fd5b611d4a8282613feb565b604080513060601b602080830191909152603480830194909452825180830390940184526054909101909152815191012090565b600c5481565b6121e8613f78565b6000546001600160a01b03908116911614612238576040805162461bcd60e51b81526020600482018190526024820152600080516020614658833981519152604482015290519081900360640190fd5b600d8054600101908190556040805160c081018252918252602082018790526001600160a01b03861690820152606081018490526080810183905260a081018290526121199061405a565b601080546000908152600560209081526040808320869055835483528083206001908101805467ffffffffffffffff19164367ffffffffffffffff90811691909117909155855485528285208201805460ff60401b19169055855485528285208201805460ff60481b191690558554855282852082018054600160501b600160f01b031916600160501b6001600160a01b038e811691820292909217909255875487528487206004018990558754875284872060020180546001600160a01b031916918d16919091179055865486528386206003018a90558654830190965586855293829020805491015482519586529285015291168282015260608201839052517f0f5e00db3a70985604891c380b05e6d3b18759a9af0737641a136498bf3027fa916080908290030190a15050505050565b604080516bffffffffffffffffffffffff19606087811b8216602084015286901b166034820152604881018490526068808201849052825180830390910181526088909101909152949350505050565b60096020526000908152604090208054600182015460028301546003840154600485015460059095015493946001600160a01b039384169492841693919291811691600160a01b90910460ff169087565b6008602090815260009182526040918290208054600180830180548651600293821615610100026000190190911692909204601f8101869004860283018601909652858252919492939092908301828280156124f55780601f106124ca576101008083540402835291602001916124f5565b820191906000526020600020905b8154815290600101906020018083116124d857829003601f168201915b505050506002838101546003850180546040805160206101006001851615026000190190931695909504601f810183900483028601830190915280855295966001600160a01b03909316959294509091908301828280156125975780601f1061256c57610100808354040283529160200191612597565b820191906000526020600020905b81548152906001019060200180831161257a57829003601f168201915b5050505060048301805460408051602060026001851615610100026000190190941693909304601f81018490048402820184019092528181529495949350908301828280156126275780601f106125fc57610100808354040283529160200191612627565b820191906000526020600020905b81548152906001019060200180831161260a57829003601f168201915b5050505060058301805460408051602060026001851615610100026000190190941693909304601f81018490048402820184019092528181529495949350908301828280156126b75780601f1061268c576101008083540402835291602001916126b7565b820191906000526020600020905b81548152906001019060200180831161269a57829003601f168201915b5050505050905086565b604080516a444542544f525f524f4c4560a81b8152905190819003600b0190206126eb9033612fba565b6127265760405162461bcd60e51b815260040180806020018281038252602381526020018061453b6023913960400191505060405180910390fd5b6005600082815260096020526040902060040154600160a01b900460ff16600681111561274f57fe5b1461278b5760405162461bcd60e51b815260040180806020018281038252602d81526020018061478e602d913960400191505060405180910390fd5b6000818152600960205260408120600301546127a690613e6b565b6000838152600960205260409020600101549091506127d6906001600160a01b03166127d183613f21565b613eb3565b604080518381526020810183905281517fe233f0212e7f4ce2ae6bfd388f7022bbbe55909e7b6dda58ab5e3bdb6f7a45f8929181900390910190a1506000908152600960205260409020600401805460ff60a01b1916600360a11b179055565b604080516c425553494e4553535f524f4c4560981b8152905190819003600d0190206128629033612fba565b61289d5760405162461bcd60e51b81526004018080602001828103825260258152602001806145846025913960400191505060405180910390fd5b6000818152600960205260409020600101546001600160a01b031633146128f55760405162461bcd60e51b815260040180806020018281038252603081526020018061475e6030913960400191505060405180910390fd5b6002600082815260096020526040902060040154600160a01b900460ff16600681111561291e57fe5b1461295a5760405162461bcd60e51b81526004018080602001828103825260318152602001806146986031913960400191505060405180910390fd5b600081815260096020908152604091829020600401805460ff60a01b1916600360a01b17905590518281526000805160206146788339815191529183916003918101825b60ff1681526020019250505060405180910390a150565b6000818152600960205260409020600401805460ff60a01b1916600360a11b1790819055600690600160a01b900460ff16818111156129f057fe5b14612a2c5760405162461bcd60e51b815260040180806020018281038252602c8152602001806145a9602c913960400191505060405180910390fd5b6000612a3782612c61565b6000818152600a602052604090206003015490915061010090046001600160a01b03163314612a975760405162461bcd60e51b81526004018080602001828103825260378152602001806146ec6037913960400191505060405180910390fd5b6000818152600a60209081526040808320600101548584526009909252822060030154612ac79160649102611bac565b6000838152600a602090815260408083206002015487845260099092528220600301549293509091612afc9160649102611bac565b905060008183612b216009600089815260200190815260200160002060030154613e6b565b600088815260096020526040902060010154919003919091039150612b52906001600160a01b03166127d183613f21565b604080518681526020810183905281517f16599f953d196ea8371b71cbcc2a2d93423c37a56c51ff8c157980238ff43c14929181900390910190a15050505050565b612b9c613f78565b6000546001600160a01b03908116911614612bec576040805162461bcd60e51b81526020600482018190526024820152600080516020614658833981519152604482015290519081900360640190fd5b600080546040516001600160a01b03909116907f8be0079c531659141344cd1fd0a4f28419497f9722a3daafe3b4186f6b6457e0908390a3600080546001600160a01b0319169055565b6000908152600960205260409020600101546001600160a01b031690565b6010545b90565b60105481565b60008060015b600f54600101811015612c9a576000818152600a6020526040902054841415612c9257809150612c9a565b600101612c67565b5092915050565b600030612cad836136ea565b60405160200180836001600160a01b03166001600160a01b031660601b815260140182815260200192505050604051602081830303815290604052805190602001209050919050565b6000908152600760205260409020600201546001600160a01b031690565b604080516a464143544f525f524f4c4560a81b8152905190819003600b019020612d3e9033612fba565b612d795760405162461bcd60e51b81526004018080602001828103825260238152602001806146c96023913960400191505060405180910390fd5b6003600083815260096020526040902060040154600160a01b900460ff166006811115612da257fe5b14612dde5760405162461bcd60e51b815260040180806020018281038252602d8152602001806145fb602d913960400191505060405180910390fd5b600082815260096020908152604091829020600401805460ff60a01b1916600160a11b17905581518481526002918101919091528151600080516020614678833981519152929181900390910190a17f30f1a1ed9ed0adbcb85235780494613b9e2542cc72f0c5ede21be804cd6470d482826040518083815260200180602001828103825283818151815260200191508051906020019080838360005b83811015612e93578181015183820152602001612e7b565b50505050905090810190601f168015612ec05780820380516001836020036101000a031916815260200191505b50935050505060405180910390a15050565b6007602090815260009182526040918290208054600180830180548651600293821615610100026000190190911692909204601f8101869004860283018601909652858252919492939092908301828280156124f55780601f106124ca576101008083540402835291602001916124f5565b600b5481565b600a6020526000908152604090208054600182015460028301546003909301549192909160ff81169061010090046001600160a01b031685565b6000546001600160a01b031690565b6000828152600160205260408120612fb1908363ffffffff61413d16565b90505b92915050565b6000828152600160205260408120612fb1908363ffffffff61414916565b600090815260056020526040902060010154600160501b90046001600160a01b031690565b600081565b600d5481565b600e54600f549091565b6060600760008381526020019081526020016000206001018054600181600116156101000203166002900480601f0160208091040260200160405190810160405280929190818152602001828054600181600116156101000203166002900480156130be5780601f10613093576101008083540402835291602001916130be565b820191906000526020600020905b8154815290600101906020018083116130a157829003601f168201915b50505050509050919050565b6006602090815260009182526040918290208054600180830180548651600293821615610100026000190190911692909204601f8101869004860283018601909652858252919492939092908301828280156124f55780601f106124ca576101008083540402835291602001916124f5565b604080516a444542544f525f524f4c4560a81b8152905190819003600b0190206131669033612fba565b6131a15760405162461bcd60e51b815260040180806020018281038252602381526020018061453b6023913960400191505060405180910390fd5b60008181526005602052604090205482146131ed5760405162461bcd60e51b815260040180806020018281038252603b815260200180614723603b913960400191505060405180910390fd5b600081815260056020908152604091829020600101805460ff60481b1916600160481b179055815133815290810184905280820183905290517fd1c03a57c1d54b117da9e3e07b69d1c862c641009cb7fd87a1c64b9801c792a49181900360600190a15050565b61325c613f78565b6000546001600160a01b039081169116146132ac576040805162461bcd60e51b81526020600482018190526024820152600080516020614658833981519152604482015290519081900360640190fd5b600b8054600101908190556040805160c081018252918252602082018790526001600160a01b03861690820152606081018490526080810183905260a081018290526121199061415e565b600f5481565b600e5481565b60008481526005602090815260408083206001908101805460ff60401b1916600160401b179055600e805490910190556004805482516304646cc560e51b815261ffff89169281019290925260ff87811660248401528616604483015291516001600160a01b0390921692638c8d98a092606480840193829003018186803b15801561338e57600080fd5b505afa1580156133a2573d6000803e3d6000fd5b505050506040513d60208110156133b857600080fd5b5051600e805460009081526009602081815260408084208c90558a8452600580835281852060018082018054895489529686528488209091018054600160501b978890046001600160a01b039081166001600160a01b0319928316179092556002808501548b548b52878b20820180549185169184169190911790556003948501548b548b52878b209095019490945591548954895285892060049081018054999092049092169790921696909617905586548652828620909401805460ff60a01b1916600160a11b179055945484529283902090930184905581518a815292830152805192935060008051602061467883398151915292918290030190a1505050505050565b60056020526000908152604090208054600182015460028301546003840154600490940154929367ffffffffffffffff83169360ff600160401b8504811694600160481b8104909116936001600160a01b03600160501b90920482169391169188565b604080516c425553494e4553535f524f4c4560981b8152905190819003600d01902061354e9033612fba565b6135895760405162461bcd60e51b81526004018080602001828103825260258152602001806145846025913960400191505060405180910390fd5b6000818152600a602052604081206003015460ff1660018111156135a957fe5b146135e55760405162461bcd60e51b815260040180806020018281038252602681526020018061455e6026913960400191505060405180910390fd5b6000818152600a6020908152604091829020600301805460ff19166001179055815183815291517f9bd6b4fd288008520fd788a93304e5688a401aea817ea8140ecf1fb8648f31919281900390910190a1600060015b600e54811161367457600081815260096020908152604080832054868452600a90925290912054141561366c578091505b60010161363b565b506000818152600960209081526040808320600401805460ff60a01b1916600560a01b179055848352600a8252918290205482519081526005918101919091528151600080516020614678833981519152929181900390910190a15050565b6000818152600160205260408120612fb4906141c9565b805160009082906136ff5750600090506119b8565b50506020015190565b604080516a464143544f525f524f4c4560a81b8152905190819003600b01902081565b60048054604080516304646cc560e51b815261ffff87169381019390935260ff808616602485015284166044840152516000926001600160a01b0390921691638c8d98a0916064808301926020929190829003018186803b15801561378f57600080fd5b505afa1580156137a3573d6000803e3d6000fd5b505050506040513d60208110156137b957600080fd5b5051949350505050565b6000828152600160205260409020600201546137e19061206d613f78565b61219c5760405162461bcd60e51b81526004018080602001828103825260308152602001806146286030913960400191505060405180910390fd5b604080516c425553494e4553535f524f4c4560981b8152905190819003600d01902060009061384b9033612fba565b6138865760405162461bcd60e51b81526004018080602001828103825260258152602001806145846025913960400191505060405180910390fd5b60006138906141d4565b60ff1691505090565b604080516a464143544f525f524f4c4560a81b8152905190819003600b0190206138c39033612fba565b6138fe5760405162461bcd60e51b81526004018080602001828103825260238152602001806146c96023913960400191505060405180910390fd5b600f80546001908101918290556040805160a0810182528681526020808201878152828401878152600060608501818152336080870152978152600a909352939091208251815590518185015591516002830155925160038201805492939192909160ff1990911690838181111561397257fe5b021790555060809190910151600390910180546001600160a01b0390921661010002610100600160a81b0319909216919091179055600f5460408051918252517f682fd9923da5632e7c7702dabcfa626195d5f444833bc25f94e418e258e791869181900360200190a1505050565b6139e9613f78565b6000546001600160a01b03908116911614613a39576040805162461bcd60e51b81526020600482018190526024820152600080516020614658833981519152604482015290519081900360640190fd5b600c8054600101908190556040805160c081018252918252602082018790526001600160a01b03861690820152606081018490526080810183905260a0810182905261211990614204565b604080516a444542544f525f524f4c4560a81b8152905190819003600b01902081565b600254604080516371d4ed8d60e11b81526001600160a01b0384811660048301529151600093929092169163e3a9db1a91602480820192602092909190829003018186803b158015613af857600080fd5b505afa158015613b0c573d6000803e3d6000fd5b505050506040513d6020811015613b2257600080fd5b505192915050565b613b32613f78565b6000546001600160a01b03908116911614613b82576040805162461bcd60e51b81526020600482018190526024820152600080516020614658833981519152604482015290519081900360640190fd5b6001600160a01b038116613bc75760405162461bcd60e51b81526004018080602001828103825260268152602001806145d56026913960400191505060405180910390fd5b600080546040516001600160a01b03808516939216917f8be0079c531659141344cd1fd0a4f28419497f9722a3daafe3b4186f6b6457e091a3600080546001600160a01b0319166001600160a01b0392909216919091179055565b604080516a464143544f525f524f4c4560a81b8152905190819003600b019020613c4c9033612fba565b613c875760405162461bcd60e51b81526004018080602001828103825260238152602001806146c96023913960400191505060405180910390fd5b6003600082815260096020526040902060040154600160a01b900460ff166006811115613cb057fe5b14613cec5760405162461bcd60e51b815260040180806020018281038252602d8152602001806145fb602d913960400191505060405180910390fd5b60008181526009602052604090206004908101805460ff60a01b1916600160a01b830217905550604051818152600080516020614678833981519152908290600490602081018261299e565b604080516c425553494e4553535f524f4c4560981b8152905190819003600d019020613d649033612fba565b613d9f5760405162461bcd60e51b81526004018080602001828103825260258152602001806145846025913960400191505060405180910390fd5b6000828152600a602052604081206003015460ff166001811115613dbf57fe5b14613dfb5760405162461bcd60e51b815260040180806020018281038252602681526020018061455e6026913960400191505060405180910390fd5b7f418c5a31b8445e9b04aaa28ad843cfd62f4833195b16cea1e96cd385750a6dba828260405180838152602001806020018281038252838181518152602001915080519060200190808383600083811015612e93578181015183820152602001612e7b565b6000612fb482612ca1565b6000600160ff1b8210613eaf5760405162461bcd60e51b81526004018080602001828103825260288152602001806147bb6028913960400191505060405180910390fd5b5090565b6002546040805163f340fa0160e01b81526001600160a01b0385811660048301529151919092169163f340fa0191849160248082019260009290919082900301818588803b158015613f0457600080fd5b505af1158015613f18573d6000803e3d6000fd5b50505050505050565b600080821215613eaf576040805162461bcd60e51b815260206004820181905260248201527f53616665436173743a2076616c7565206d75737420626520706f736974697665604482015290519081900360640190fd5b3390565b6000828152600160205260409020613f9a908263ffffffff61426216565b15611d4a57613fa7613f78565b6001600160a01b0316816001600160a01b0316837f2f8788117e7eff1d82e926ec794901d17c78024a50270940304540a733656f0d60405160405180910390a45050565b6000828152600160205260409020614009908263ffffffff61427716565b15611d4a57614016613f78565b6001600160a01b0316816001600160a01b0316837ff6391f5c32d9c69d2a47ea670b442974b53935d1edc7fd64eb21e047a839171b60405160405180910390a45050565b604080516a464143544f525f524f4c4560a81b8152815190819003600b0190209082015161408891906120ad565b6040808201516001600160a01b03166000908152600860209081529190208251815581830151805184936140c392600185019291019061445b565b5060408201516002820180546001600160a01b0319166001600160a01b039092169190911790556060820151805161410591600384019160209091019061445b565b506080820151805161412191600484019160209091019061445b565b5060a08201518051611c4e91600584019160209091019061445b565b6000612fb1838361428c565b6000612fb1836001600160a01b0384166142f0565b604080516c425553494e4553535f524f4c4560981b8152815190819003600d0190209082015161418e91906120ad565b6040808201516001600160a01b03166000908152600660209081529190208251815581830151805184936140c392600185019291019061445b565b6000612fb482614308565b604080514260208083019190915244828401528251808303840181526060909201909252805191012060fb900690565b604080516a444542544f525f524f4c4560a81b8152815190819003600b0190209082015161423291906120ad565b805160009081526007602090815260409091208251815581830151805184936140c392600185019291019061445b565b6000612fb1836001600160a01b03841661430c565b6000612fb1836001600160a01b038416614356565b815460009082106142ce5760405162461bcd60e51b81526004018080602001828103825260228152602001806144ea6022913960400191505060405180910390fd5b8260000182815481106142dd57fe5b9060005260206000200154905092915050565b60009081526001919091016020526040902054151590565b5490565b600061431883836142f0565b61434e57508154600181810184556000848152602080822090930184905584548482528286019093526040902091909155612fb4565b506000612fb4565b60008181526001830160205260408120548015614412578354600019808301919081019060009087908390811061438957fe5b90600052602060002001549050808760000184815481106143a657fe5b6000918252602080832090910192909255828152600189810190925260409020908401905586548790806143d657fe5b60019003818190600052602060002001600090559055866001016000878152602001908152602001600020600090556001945050505050612fb4565b6000915050612fb4565b6040518060c00160405280600081526020016060815260200160006001600160a01b031681526020016060815260200160608152602001606081525090565b828054600181600116156101000203166002900490600052602060002090601f016020900481019282601f1061449c57805160ff19168380011785556144c9565b828001600101855582156144c9579182015b828111156144c95782518255916020019190600101906144ae565b50613eaf92612c589250905b80821115613eaf57600081556001016144d556fe456e756d657261626c655365743a20696e646578206f7574206f6620626f756e6473416363657373436f6e74726f6c3a2073656e646572206d75737420626520616e2061646d696e20746f206772616e744f6e6c7920646562746f722063616e2063616c6c20746869732066756e6374696f6e2e546865206d6574686f642063616e206f6e6c792068616e646c652061206e6577206f666665724f6e6c7920627573696e6573732063616e2063616c6c20746869732066756e6374696f6e2e546865206d6574686f642063616e206f6e6c792068616e646c65206120736574746c656420696e766f6963654f776e61626c653a206e6577206f776e657220697320746865207a65726f2061646472657373546865206d6574686f642063616e206f6e6c792068616e646c6520616e206f66666572656420696e766f696365416363657373436f6e74726f6c3a2073656e646572206d75737420626520616e2061646d696e20746f207265766f6b654f776e61626c653a2063616c6c6572206973206e6f7420746865206f776e6572704dddd02969bdcb00bcad5a64da1892a33f6ab2971ab5e3f72bebe254c75fc3546865206d6574686f642063616e206f6e6c79206f6666657220616e2061636b6e6f776c656467656420696e766f6963654f6e6c7920666163746f722063616e2063616c6c20746869732066756e6374696f6e2e546865206d6574686f642063616e206f6e6c792062652063616c6c656420627920746865206f776e6572206f6620746865206f66666572446562746f722063616c63756c617465642068617368206d75737420626520657175616c20746f20746865206861736820696e20636f6d6d69742e54686973206d6574686f642063616e206f6e6c7920626520696e766f6b656420627920696e766f696365206f776e6572546865206d6574686f642063616e206f6e6c792068616e646c65206120666163746f72656420696e766f69636553616665436173743a2076616c756520646f65736e27742066697420696e20616e20696e74323536416363657373436f6e74726f6c3a2063616e206f6e6c792072656e6f756e636520726f6c657320666f722073656c66a2646970667358221220cc764e0e0c53452d87af229154f7a1553a8da2b0348bab88cd1bd008bf0098ad64736f6c63430006020033608060405260006100176001600160e01b0361006616565b600080546001600160a01b0319166001600160a01b0383169081178255604051929350917f8be0079c531659141344cd1fd0a4f28419497f9722a3daafe3b4186f6b6457e0908290a35061006a565b3390565b6106df806100796000396000f3fe6080604052600436106100555760003560e01c806351cff8d91461005a578063715018a61461008f5780638da5cb5b146100a4578063e3a9db1a146100d5578063f2fde38b1461011a578063f340fa011461014d575b600080fd5b34801561006657600080fd5b5061008d6004803603602081101561007d57600080fd5b50356001600160a01b0316610173565b005b34801561009b57600080fd5b5061008d61023c565b3480156100b057600080fd5b506100b96102de565b604080516001600160a01b039092168252519081900360200190f35b3480156100e157600080fd5b50610108600480360360208110156100f857600080fd5b50356001600160a01b03166102ed565b60408051918252519081900360200190f35b34801561012657600080fd5b5061008d6004803603602081101561013d57600080fd5b50356001600160a01b0316610308565b61008d6004803603602081101561016357600080fd5b50356001600160a01b0316610400565b61017b6104d9565b6000546001600160a01b039081169116146101cb576040805162461bcd60e51b8152602060048201819052602482015260008051602061068a833981519152604482015290519081900360640190fd5b6001600160a01b03811660008181526001602052604081208054919055906101f9908263ffffffff6104dd16565b6040805182815290516001600160a01b038416917f7084f5476618d8e60b11ef0d7d3f06914655adb8793e28ff7f018d4c76d505d5919081900360200190a25050565b6102446104d9565b6000546001600160a01b03908116911614610294576040805162461bcd60e51b8152602060048201819052602482015260008051602061068a833981519152604482015290519081900360640190fd5b600080546040516001600160a01b03909116907f8be0079c531659141344cd1fd0a4f28419497f9722a3daafe3b4186f6b6457e0908390a3600080546001600160a01b0319169055565b6000546001600160a01b031690565b6001600160a01b031660009081526001602052604090205490565b6103106104d9565b6000546001600160a01b03908116911614610360576040805162461bcd60e51b8152602060048201819052602482015260008051602061068a833981519152604482015290519081900360640190fd5b6001600160a01b0381166103a55760405162461bcd60e51b815260040180806020018281038252602681526020018061062a6026913960400191505060405180910390fd5b600080546040516001600160a01b03808516939216917f8be0079c531659141344cd1fd0a4f28419497f9722a3daafe3b4186f6b6457e091a3600080546001600160a01b0319166001600160a01b0392909216919091179055565b6104086104d9565b6000546001600160a01b03908116911614610458576040805162461bcd60e51b8152602060048201819052602482015260008051602061068a833981519152604482015290519081900360640190fd5b6001600160a01b0381166000908152600160205260409020543490610483908263ffffffff6105c816565b6001600160a01b038316600081815260016020908152604091829020939093558051848152905191927f2da466a7b24304f47e87fa2e1e5a81b9831ce54fec19055ce277ca2f39ba42c492918290030190a25050565b3390565b3031811115610533576040805162461bcd60e51b815260206004820152601d60248201527f416464726573733a20696e73756666696369656e742062616c616e6365000000604482015290519081900360640190fd5b6040516000906001600160a01b0384169083908381818185875af1925050503d806000811461057e576040519150601f19603f3d011682016040523d82523d6000602084013e610583565b606091505b50509050806105c35760405162461bcd60e51b815260040180806020018281038252603a815260200180610650603a913960400191505060405180910390fd5b505050565b600082820183811015610622576040805162461bcd60e51b815260206004820152601b60248201527f536166654d6174683a206164646974696f6e206f766572666c6f770000000000604482015290519081900360640190fd5b939250505056fe4f776e61626c653a206e6577206f776e657220697320746865207a65726f2061646472657373416464726573733a20756e61626c6520746f2073656e642076616c75652c20726563697069656e74206d617920686176652072657665727465644f776e61626c653a2063616c6c6572206973206e6f7420746865206f776e6572a26469706673582212205edb40e718ac9cca3f3c27ae556885c11f0c921b62303aa8ec3ce931436f07a164736f6c63430006020033608060405234801561001057600080fd5b506108ee806100206000396000f3fe608060405234801561001057600080fd5b50600436106100ca5760003560e01c80639054bdec1161007c5780639054bdec1461021b57806392d6631314610267578063a324ad241461029b578063a6f0e577146102b8578063b1999937146102ed578063b238ad0e1461030a578063fa93f88314610334576100ca565b80633e239e1a146100cf5780634ac1ad781461010257806362ba96871461011f57806365c72840146101735780637f791833146101905780638aa001fc146101cc5780638c8d98a0146101e9575b600080fd5b6100ec600480360360208110156100e557600080fd5b5035610351565b6040805160ff9092168252519081900360200190f35b6100ec6004803603602081101561011857600080fd5b503561036c565b610161600480360360a081101561013557600080fd5b5061ffff8135169060ff602082013581169160408101358216916060820135811691608001351661037e565b60408051918252519081900360200190f35b6100ec6004803603602081101561018957600080fd5b5035610399565b610161600480360360808110156101a657600080fd5b5061ffff8135169060ff60208201358116916040810135821691606090910135166103ae565b6100ec600480360360208110156101e257600080fd5b50356103c8565b610161600480360360608110156101ff57600080fd5b5061ffff8135169060ff602082013581169160400135166103d2565b610161600480360360c081101561023157600080fd5b5061ffff8135169060ff602082013581169160408101358216916060820135811691608081013582169160a090910135166103ec565b6102846004803603602081101561027d57600080fd5b503561052b565b6040805161ffff9092168252519081900360200190f35b6100ec600480360360208110156102b157600080fd5b50356105bb565b6102d9600480360360208110156102ce57600080fd5b503561ffff166105d0565b604080519115158252519081900360200190f35b6101616004803603602081101561030357600080fd5b5035610622565b6100ec6004803603604081101561032057600080fd5b50803560ff16906020013561ffff1661063d565b6100ec6004803603602081101561034a57600080fd5b5035610705565b60006018603c8084045b048161036357fe5b0690505b919050565b60006007600462015180840401610363565b600061038f868686868660006103ec565b9695505050505050565b60006103a482610710565b6040015192915050565b60006103bf858585856000806103ec565b95945050505050565b6000603c82610363565b60006103e484848460008060006103ec565b949350505050565b60006107b25b8761ffff168161ffff1610156104305761040b816105d0565b1561041e576301e2850082019150610428565b6301e13380820191505b6001016103f2565b61043861085d565b601f8152610445896105d0565b1561045657601d602082015261045e565b601c60208201525b601f60408201819052601e606083018190526080830182905260a0830181905260c0830182905260e0830182905261010083018190526101208301829052610140830152610160820152600191505b8760ff168261ffff1610156104ed57806001830361ffff16600c81106104cf57fe5b602002015160ff1662015180028301925081806001019250506104ad565b6001870360ff166201518002830192508560ff16610e1002830192508460ff16603c02830192508360ff168301925082925050509695505050505050565b6000806107b26301e133808404810190829061054690610622565b6105538361ffff16610622565b039050806301e285000283019250806107b2830361ffff16036301e1338002830192505b848311156105b35761058b600183036105d0565b1561059e576301e28500830392506105a8565b6301e13380830392505b600182039150610577565b509392505050565b60006105c682610710565b6020015192915050565b600060038216156105e357506000610367565b606461ffff83160661ffff166000146105fe57506001610367565b61019061ffff83160661ffff1660001461061a57506000610367565b506001919050565b60001901600061019082046064830460048404030192915050565b60008260ff166001148061065457508260ff166003145b8061066257508260ff166005145b8061067057508260ff166007145b8061067e57508260ff166008145b8061068c57508260ff16600a145b8061069a57508260ff16600c145b156106a75750601f6106ff565b8260ff16600414806106bc57508260ff166006145b806106ca57508260ff166009145b806106d857508260ff16600b145b156106e55750601e6106ff565b6106ee826105d0565b156106fb5750601d6106ff565b50601c5b92915050565b6000603c808361035b565b61071861087c565b600080806107258561052b565b61ffff1684526107366107b2610622565b84516107459061ffff16610622565b039150816301e285000283019250816107b285600001510361ffff16036301e1338002830192506000600191505b600c8260ff16116107bd5761078c82866000015161063d565b60ff16620151800290508584820111156107ae5760ff821660208601526107bd565b92830192600190910190610773565b600191505b6107d48560200151866000015161063d565b60ff168260ff161161080f578584620151800111156107fb5760ff8216604086015261080f565b6201518093909301926001909101906107c2565b61081886610351565b60ff16606086015261082986610705565b60ff16608086015261083a866103c8565b60ff1660a086015261084b8661036c565b60ff1660c08601525092949350505050565b604051806101800160405280600c906020820280388339509192915050565b6040805160e081018252600080825260208201819052918101829052606081018290526080810182905260a0810182905260c08101919091529056fea2646970667358221220dbfce6906e9123f658ef6a90b9c380fed8edcadb25719f21c58e24c42e5df9d164736f6c63430006020033",
  "source": "// SPDX-License-Identifier: MIT\npragma solidity ^0.6.0;\n\n/*\nimport \"https://github.com/OpenZeppelin/openzeppelin-contracts/blob/master/contracts/access/Ownable.sol\";\nimport \"https://github.com/OpenZeppelin/openzeppelin-contracts/blob/master/contracts/access/AccessControl.sol\";\nimport \"https://github.com/OpenZeppelin/openzeppelin-contracts/blob/master/contracts/payment/PullPayment.sol\";\nimport \"https://github.com/OpenZeppelin/openzeppelin-contracts/blob/master/contracts/utils/SafeCast.sol\";\nimport \"https://github.com/OpenZeppelin/openzeppelin-contracts/blob/master/contracts/math/SafeMath.sol\";\n*/\nimport \"@openzeppelin/contracts/access/Ownable.sol\";\nimport \"@openzeppelin/contracts/access/AccessControl.sol\";\nimport \"@openzeppelin/contracts/payment/PullPayment.sol\";\nimport \"@openzeppelin/contracts/utils/SafeCast.sol\";\nimport \"@openzeppelin/contracts/math/SafeMath.sol\";\nimport \"./DateTime.sol\";\n\n\ncontract BFactor is Ownable, AccessControl, PullPayment {\n\n    string public name;\n    bytes32 public constant BUSINESS_ROLE = keccak256(\"BUSINESS_ROLE\");\n    bytes32 public constant DEBTOR_ROLE = keccak256(\"DEBTOR_ROLE\");\n    bytes32 public constant FACTOR_ROLE = keccak256(\"FACTOR_ROLE\");\n    DateTime dateTime;\n\n    struct Business {\n        uint Id;\n        string name;\n        address account;\n        string addressOfBusiness;\n        string telephone;\n        string email;\n    }\n\n    struct Debtor {\n        uint Id;\n        string name;\n        address account;\n        string addressOfDebtor;\n        string telephone;\n        string email;\n        \n    }\n\n    struct Factor {\n        uint Id;\n        string name;\n        address account;\n        string addressOfFactor;\n        string telephone;\n        string email;\n        \n    }\n\n    enum InvoiceState { Created, Pending, Acknowledged, Offered, Factorable, Factored, Settled }\n    enum OfferState { Pending, Accepted }\n\n    struct Invoice {\n        uint invoiceId;\n        address payable owner;\n        address issuedTo;\n        uint amount;\n        address paidTo;\n        InvoiceState state;\n        uint invoiceDate;\n    }\n\n    struct Offer {\n        uint invoiceId;\n        uint advanceRate;\n        uint discountRate;\n        OfferState state;\n        address payable owner;\n    }\n\n    /** Committment Scheme\n     */\n    struct Commit {\n        bytes32 commit;\n        uint64 block;\n        bool revealed;\n        bool confirmed;\n        address payable owner;\n        address debtor;\n        uint amount;\n        uint invoiceID;\n    }\n\n    mapping (uint => Commit) public commits;\n\n    mapping(address => Business) public businesses;\n    mapping(uint => Debtor) public debtors;\n    mapping(address => Factor) public factors;\n    mapping(uint => Invoice) public invoices;\n    mapping(uint256 => Offer) public offers;\n\n    uint public businessesCount;\n    uint public debtorsCount;\n    uint public factorsCount;\n    uint public invoicesCount;\n    uint public offersCount;\n    uint public commitsCount;\n\n    /* Events */\n    event InvoiceStateChanged(uint _invoiceId, InvoiceState _newState);\n\n    event InvoiceRejected(uint _invoiceId, string _reason);\n\n    event OfferCreated(uint _offerId);\n\n    event OfferAccepted(uint _offerId);\n\n    event OfferRejected(uint _offerId, string _reason);\n\n    event AdvanceRateDeposited(uint _offerId, int256 _amount);\n\n    event InvoiceSettled(uint _invoiceId, int256 _amount);\n\n    event RemainingDeposited(uint _invoiceId, int256 _amount);\n\n    /* Modifiers */\n    modifier onlyBusiness {\n        require(\n            hasRole(BUSINESS_ROLE, msg.sender),\n            \"Only business can call this function.\"\n        );\n        _;\n    }\n\n    modifier onlyDebtor {\n        require(\n            hasRole(DEBTOR_ROLE, msg.sender),\n            \"Only debtor can call this function.\"\n        );\n        _;\n    }\n\n    modifier onlyFactor {\n        require(\n            hasRole(FACTOR_ROLE, msg.sender),\n            \"Only factor can call this function.\"\n        );\n        _;\n    }\n\n    //Should be a payable constructor\n    constructor(string memory _name) public payable {\n        name = _name;\n        businessesCount = 0;\n        debtorsCount = 0;\n        factorsCount = 0;\n        invoicesCount = 0;\n        offersCount = 0;\n        commitsCount = 0;\n\n        dateTime = new DateTime();\n    }\n\n    function createBusiness(string memory _name, address _account, string memory _addressOfBusiness, string memory _telephone, string memory _email) public onlyOwner {\n        businessesCount ++;\n        registerBusiness(Business(businessesCount, _name, _account, _addressOfBusiness, _telephone, _email));\n    }\n\n    function registerBusiness(Business memory _business) internal {\n        _setupRole(BUSINESS_ROLE, _business.account);\n        businesses[_business.account] = _business;\n    }\n\n    function createDebtor(string memory _name, address _account,string memory _addressOfDebtor, string memory _telephone, string memory _email) public onlyOwner {\n        debtorsCount ++;\n        registerDebtor(Debtor(debtorsCount, _name, _account, _addressOfDebtor, _telephone, _email));\n    }\n\n    function registerDebtor(Debtor memory _debtor) internal {\n        _setupRole(DEBTOR_ROLE, _debtor.account);\n        debtors[_debtor.Id] = _debtor;\n    }\n\n    function createFactor(string memory _name, address _account, string memory _addressOfFactor, string memory _telephone, string memory _email) public onlyOwner {\n        factorsCount ++;\n        registerFactor(Factor(factorsCount, _name, _account, _addressOfFactor, _telephone, _email));\n    }\n\n    function registerFactor(Factor memory _factor) internal {\n        _setupRole(FACTOR_ROLE, _factor.account);\n        factors[_factor.account] = _factor;\n    }\n\n    /**\n\n    Committment Scheme\n    ==================\n\n    1. Business to get invoice data hash using business address, debtors address, and amount \n    2. Calculate a random number for the invoice ID\n    3. Commit the hash and invoice ID to the chain and notify the Debtor to acknowledge\n    4. Debtor use own data to calculate the invoice hash\n    5. Acknlowedge the invoice by comparing the invoice hash in the commit to the calcualte hash (if hash is differnt it should affect the Business rating)\n    6. If hash is correct set confirmed to true and only then Business can reveal the invoice (i.e. create it)\n    7. Create invoice and set the invoice ID to the same ID in the commit and set revealed to true\n    8. Set the invoice status to Acknowledged\n\n    */\n\n    function getInvoiceHash(string memory _invoiceData) view public returns(bytes32 hashedInvoiceData){\n        return getHashFromString(_invoiceData);\n    }\n\n    function getInvoiceDateTimeStamp(uint16 _invoiceYear, uint8 _invoiceMonth, uint8 _invoiceDay) public view returns(uint) {\n        return dateTime.toTimestamp(_invoiceYear, _invoiceMonth, _invoiceDay);\n    }\n\n    function getInvoiceDataEncoded(address _invIssuer, address _invDebtor, uint _invAmount, uint _invDate) public view returns (bytes memory) {\n        return abi.encodePacked(_invIssuer, _invDebtor, _invAmount, _invDate);\n    }\n\n    function createInvoiceId() view public onlyBusiness returns(uint) {\n        uint invoiceId = random();\n\n        return invoiceId;\n    } \n\n    function commit(address payable _owner, address _debtor, uint _amount, bytes32 _dataHash, uint _invoiceId) public {\n        commits[commitsCount].commit = _dataHash;\n        commits[commitsCount].block = uint64(block.number);\n        commits[commitsCount].revealed = false;\n        commits[commitsCount].confirmed = false;\n        commits[commitsCount].owner = _owner;\n        commits[commitsCount].invoiceID = _invoiceId;\n        commits[commitsCount].debtor = _debtor;\n        commits[commitsCount].amount = _amount;\n        commitsCount ++;\n        emit CommitHash(_owner,commits[_invoiceId].commit,commits[_invoiceId].block, _invoiceId);\n    }\n    event CommitHash(address sender, bytes32 dataHash, uint64 block, uint invoiceId);\n\n    function acknowledgeInvoice(bytes32 _hashedInvoiceData, uint _invoiceId) public onlyDebtor {        \n        require(commits[_invoiceId].commit == _hashedInvoiceData, \"Debtor calculated hash must be equal to the hash in commit.\");\n\n        commits[_invoiceId].confirmed=true;\n\n        emit ConfirmHash(msg.sender, _hashedInvoiceData, _invoiceId);\n    }\n    event ConfirmHash(address debtor, bytes32 dataHash, uint invoiceId);\n\n    function createInvoice(uint _invoiceId, uint _commitID, uint16 _invoiceYear, uint8 _invoiceMonth, uint8 _invoiceDay) public {\n        //require(commits[_commitID].confirmed == true, \"CommitReveal: the hash has been confirmed by the debtor\");\n        commits[_commitID].revealed=true;\n\n        invoicesCount ++;\n        uint invoiceDate = dateTime.toTimestamp( _invoiceYear, _invoiceMonth, _invoiceDay);\n\n        invoices[invoicesCount].invoiceId = _invoiceId;\n        invoices[invoicesCount].owner = commits[_commitID].owner;\n        invoices[invoicesCount].issuedTo = commits[_commitID].debtor;\n        invoices[invoicesCount].amount = commits[_commitID].amount;\n        invoices[invoicesCount].paidTo = commits[_commitID].owner;\n        invoices[invoicesCount].state = InvoiceState.Acknowledged;\n        invoices[invoicesCount].invoiceDate = invoiceDate;\n        \n        emit InvoiceStateChanged(_invoiceId, InvoiceState.Acknowledged);\n    }\n\n    // + offerInvoice(): void\n    function offerInvoice(uint _invoiceId) public onlyBusiness {\n        require(msg.sender == invoices[_invoiceId].owner, \"This method can only be invoked by invoice owner\");\n        require(invoices[_invoiceId].state == InvoiceState.Acknowledged, \"The method can only offer an acknowledged invoice\");\n        invoices[_invoiceId].state = InvoiceState.Offered;\n        emit InvoiceStateChanged(_invoiceId, InvoiceState.Offered);\n    }\n\n    // + reviewOfferedInvoice(): bool\n    // function reviewInvoice(uint _invoiceId) public onlyFactor {\n    //     require(invoices[_invoiceId].state == InvoiceState.Offered, \"The method can only handle an offered invoice\");\n    //     //Todo: Add invoice review process\n    //     bool reviewResult = false;\n\n    //     if(reviewResult) {\n    //         acceptInvoice(_invoiceId);\n    //     } else {\n    //         rejectInvoice(_invoiceId);\n    //     }\n    // }\n\n    function acceptInvoice(uint _invoiceId) public onlyFactor {\n        require(invoices[_invoiceId].state == InvoiceState.Offered, \"The method can only handle an offered invoice\");\n        invoices[_invoiceId].state = InvoiceState.Factorable;\n        emit InvoiceStateChanged(_invoiceId, InvoiceState.Factorable);\n    }\n\n    function rejectInvoice(uint _invoiceId, string memory _reason) public onlyFactor {\n        require(invoices[_invoiceId].state == InvoiceState.Offered, \"The method can only handle an offered invoice\");\n        invoices[_invoiceId].state = InvoiceState.Acknowledged;\n        emit InvoiceStateChanged(_invoiceId, InvoiceState.Acknowledged);\n        emit InvoiceRejected(_invoiceId, _reason);\n    }\n\n    // + createOffer(): void\n    function createOffer(uint _invoiceId, uint _advanceRate,uint _discountRate) public onlyFactor {\n        //require(invoices[_invoiceId].state == InvoiceState.Factorable, \"The method can only handle a factorable invoice\");\n        offersCount ++;\n        offers[offersCount] = Offer(_invoiceId, _advanceRate, _discountRate, OfferState.Pending, msg.sender);\n        emit OfferCreated(offersCount);\n    }\n\n    // + reviewOffer(): bool\n    // function reviewOffer(uint _offerId) public onlyBusiness {\n    //     require(offers[_offerId].state == OfferState.Created, \"The method can only handle a new offer\");\n\n    //     //Todo: Add offer review process\n    //     bool reviewResult = false;\n    //     string rejectionReason = \"\";\n\n    //     if(reviewResult) {\n    //         acceptOffer(_offerId);\n    //     } else {\n    //         rejectOffer(_offerId, rejectionReason);\n    //     }\n    // }\n\n    function acceptOffer(uint _offerId) public onlyBusiness {\n        require(offers[_offerId].state == OfferState.Pending, \"The method can only handle a new offer\");\n        offers[_offerId].state = OfferState.Accepted;\n        emit OfferAccepted(_offerId);\n        uint invId=0;\n        for(uint i=1; i<=invoicesCount; i++){\n            if(offers[_offerId].invoiceId == invoices[i].invoiceId){\n                invId=i;\n            }\n        }\n        invoices[invId].state = InvoiceState.Factored;\n        emit InvoiceStateChanged(offers[_offerId].invoiceId, InvoiceState.Factored);\n    }\n\n    function rejectOffer(uint _offerId, string memory _reason) public onlyBusiness {\n        require(offers[_offerId].state == OfferState.Pending, \"The method can only handle a new offer\");\n        emit OfferRejected(_offerId, _reason);\n    }\n\n    // + sendAdvanceRate(): void\n    function sendAdvanceRate(uint _invoiceId) public payable onlyFactor {\n        require(invoices[_invoiceId].state == InvoiceState.Factored,\n        \"The method can only handle a factored invoice\");\n\n        uint256 offerId = getOfferByInvoiceId(_invoiceId);\n        require(offers[offerId].owner == msg.sender, \"The method can only be called by the owner of the offer\");\n\n        //uint256 advanceRateAmount = SafeMath.mul(invoices[_invoiceId].amount, SafeMath.div(offers[offerId].advanceRate,100));\n        int256 advanceRateAmount = SafeCast.toInt256((invoices[_invoiceId].amount * offers[offerId].advanceRate) / 100);\n        emit AdvanceRateDeposited(offerId, advanceRateAmount);\n        _asyncTransfer(invoices[_invoiceId].owner, /*SafeCast.toUint256(advanceRateAmount)*/1);\n        msg.sender.transfer(SafeCast.toUint256(advanceRateAmount));\n    }\n\n    function withdrawAdvanceRate(uint _invoiceId) public onlyBusiness {\n        require(msg.sender == invoices[_invoiceId].owner, \"This method can only be invoked by invoice owner\");\n        uint256 offerId = getOfferByInvoiceId(_invoiceId);\n        withdrawPayments(offers[offerId].owner);\n    }\n\n    function getOfferByInvoiceId(uint _invoiceId) public view returns(uint256) {\n        uint256 _result = 0;\n\n        for(uint i = 1; i < offersCount+1; i++) {\n            if(offers[i].invoiceId == _invoiceId) {\n                _result = i;\n                break;\n            }\n        }\n\n        return _result;\n    }\n\n    // + settleInvoice(): void\n    function settleInvoice(uint _invoiceId) public onlyDebtor {\n        require(invoices[_invoiceId].state == InvoiceState.Factored,\n        \"The method can only handle a factored invoice\");\n\n        int256 invoiceAmount = SafeCast.toInt256(invoices[_invoiceId].amount);\n        _asyncTransfer(invoices[_invoiceId].owner, SafeCast.toUint256(invoiceAmount));\n        emit InvoiceSettled(_invoiceId, invoiceAmount);\n        invoices[_invoiceId].state = InvoiceState.Settled;\n    }\n\n    // + sendRemaining(): void\n    function sendRemaining(uint _invoiceId) public payable {\n        //just to pass this check - TBR\n        invoices[_invoiceId].state = InvoiceState.Settled;\n\n        require(invoices[_invoiceId].state == InvoiceState.Settled,\n        \"The method can only handle a settled invoice\");\n\n        uint256 offerId = getOfferByInvoiceId(_invoiceId);\n        require(offers[offerId].owner == msg.sender, \"The method can only be called by the owner of the offer\");\n\n        int256 advanceRateAmount = SafeCast.toInt256((invoices[_invoiceId].amount * offers[offerId].advanceRate) / 100);\n        int256 discountRateAmount = SafeCast.toInt256((invoices[_invoiceId].amount * offers[offerId].discountRate) / 100);\n        int256 remainingAmount = SafeCast.toInt256(invoices[_invoiceId].amount) - advanceRateAmount - discountRateAmount;\n        _asyncTransfer(invoices[_invoiceId].owner, SafeCast.toUint256(remainingAmount));\n\n        emit RemainingDeposited(_invoiceId, remainingAmount);\n    }\n\n    function getCount() public view returns (uint, uint){\n        return (invoicesCount,offersCount);\n    }\n\n\n    /**\n    Utils\n     */\n    function random() private view returns (uint8) {\n       return uint8(uint256(keccak256(abi.encodePacked(block.timestamp, block.difficulty)))%251);\n    }\n\n   function getHash(bytes32 data) public view returns(bytes32){\n        return keccak256(abi.encodePacked(address(this), data));\n    }\n\n    function getHashFromString(string memory data) public view returns(bytes32) {\n        return keccak256(abi.encodePacked(address(this), stringToBytes32(data)));\n    }\n\n    function stringToBytes32(string memory source) public pure returns (bytes32 result) {\n        bytes memory tempEmptyStringTest = bytes(source);\n        if (tempEmptyStringTest.length == 0) {\n            return 0x0;\n        }\n\n        assembly {\n            result := mload(add(source, 32))\n        }\n    }\n\n\n    function getCommitsCount() public view returns (uint){\n        return commitsCount;\n    }\n\n    function getCommitOwner(uint _id) public view returns (address) {\n        return commits[_id].owner;\n    }\n\n    function getDebtorName(uint _id) public view returns (string memory) {\n        return debtors[_id].name;\n    }\n\n    function getDebtorNameByAddress(address _debtorAddress) public view returns (string memory) {\n        for(uint i = 0 ; i <= debtorsCount; i++) {\n            Debtor memory debtor = debtors[i];\n            if(debtor.account == _debtorAddress) {\n                return debtor.name;\n            }\n        }\n    }\n\n    function getDebtorAddress(uint _id) public view returns (address) {\n        return debtors[_id].account;\n    }\n\n    function getInvoiceAmount(uint _invoiceID) public view returns (uint) {\n        return invoices[_invoiceID].amount;\n    }\n\n    function getInvoiceOwner(uint _invoiceID) public view returns (address) {\n        return invoices[_invoiceID].owner;\n    }\n}",
  "sourcePath": "/home/lmedury/post-covid-hack/BFactor/bfactor/contracts/BFactor.sol",
  "compiler": {
    "name": "solc",
    "version": "0.6.2+commit.bacdbe57.Linux.g++"
  },
  "schemaVersion": "3.3.2",
  "updatedAt": "2020-11-26T10:10:53.038Z",
  "networkType": "ethereum",
  "devdoc": {
    "methods": {
      "getRoleAdmin(bytes32)": {
        "details": "Returns the admin role that controls `role`. See {grantRole} and {revokeRole}.     * To change a role's admin, use {_setRoleAdmin}."
      },
      "getRoleMember(bytes32,uint256)": {
        "details": "Returns one of the accounts that have `role`. `index` must be a value between 0 and {getRoleMemberCount}, non-inclusive.     * Role bearers are not sorted in any particular way, and their ordering may change at any point.     * WARNING: When using {getRoleMember} and {getRoleMemberCount}, make sure you perform all queries on the same block. See the following https://forum.openzeppelin.com/t/iterating-over-elements-on-enumerableset-in-openzeppelin-contracts/2296[forum post] for more information."
      },
      "getRoleMemberCount(bytes32)": {
        "details": "Returns the number of accounts that have `role`. Can be used together with {getRoleMember} to enumerate all bearers of a role."
      },
      "grantRole(bytes32,address)": {
        "details": "Grants `role` to `account`.     * If `account` had not been already granted `role`, emits a {RoleGranted} event.     * Requirements:     * - the caller must have ``role``'s admin role."
      },
      "hasRole(bytes32,address)": {
        "details": "Returns `true` if `account` has been granted `role`."
      },
      "owner()": {
        "details": "Returns the address of the current owner."
      },
      "payments(address)": {
        "details": "Returns the payments owed to an address.",
        "params": {
          "dest": "The creditor's address."
        }
      },
      "renounceOwnership()": {
        "details": "Leaves the contract without owner. It will not be possible to call `onlyOwner` functions anymore. Can only be called by the current owner.     * NOTE: Renouncing ownership will leave the contract without an owner, thereby removing any functionality that is only available to the owner."
      },
      "renounceRole(bytes32,address)": {
        "details": "Revokes `role` from the calling account.     * Roles are often managed via {grantRole} and {revokeRole}: this function's purpose is to provide a mechanism for accounts to lose their privileges if they are compromised (such as when a trusted device is misplaced).     * If the calling account had been granted `role`, emits a {RoleRevoked} event.     * Requirements:     * - the caller must be `account`."
      },
      "revokeRole(bytes32,address)": {
        "details": "Revokes `role` from `account`.     * If `account` had been granted `role`, emits a {RoleRevoked} event.     * Requirements:     * - the caller must have ``role``'s admin role."
      },
      "transferOwnership(address)": {
        "details": "Transfers ownership of the contract to a new account (`newOwner`). Can only be called by the current owner."
      },
      "withdrawPayments(address)": {
        "details": "Withdraw accumulated payments, forwarding all gas to the recipient.     * Note that _any_ account can call this function, not just the `payee`. This means that contracts unaware of the `PullPayment` protocol can still receive funds this way, by having a separate account call {withdrawPayments}.     * WARNING: Forwarding all gas opens the door to reentrancy vulnerabilities. Make sure you trust the recipient, or are either following the checks-effects-interactions pattern or using {ReentrancyGuard}.",
        "params": {
          "payee": "Whose payments will be withdrawn."
        }
      }
    }
  },
  "userdoc": {
    "methods": {
      "getInvoiceHash(string)": {
        "notice": "Committment Scheme ================== 1. Business to get invoice data hash using business address, debtors address, and amount  2. Calculate a random number for the invoice ID 3. Commit the hash and invoice ID to the chain and notify the Debtor to acknowledge 4. Debtor use own data to calculate the invoice hash 5. Acknlowedge the invoice by comparing the invoice hash in the commit to the calcualte hash (if hash is differnt it should affect the Business rating) 6. If hash is correct set confirmed to true and only then Business can reveal the invoice (i.e. create it) 7. Create invoice and set the invoice ID to the same ID in the commit and set revealed to true 8. Set the invoice status to Acknowledged"
      }
    }
  }
}