{
  "contractName": "Debtor",
  "abi": [
    {
      "inputs": [
        {
          "internalType": "string",
          "name": "_name",
          "type": "string"
        }
      ],
      "name": "setName",
      "outputs": [],
      "stateMutability": "nonpayable",
      "type": "function"
    },
    {
      "inputs": [
        {
          "internalType": "address",
          "name": "_account",
          "type": "address"
        }
      ],
      "name": "setAccount",
      "outputs": [],
      "stateMutability": "nonpayable",
      "type": "function"
    }
  ],
  "bytecode": "0x608060405234801561001057600080fd5b50610213806100206000396000f3fe608060405234801561001057600080fd5b50600436106100365760003560e01c806329f6d57c1461003b578063c47f002714610063575b600080fd5b6100616004803603602081101561005157600080fd5b50356001600160a01b0316610109565b005b6100616004803603602081101561007957600080fd5b81019060208101813564010000000081111561009457600080fd5b8201836020820111156100a657600080fd5b803590602001918460018302840111640100000000831117156100c857600080fd5b91908080601f01602080910402602001604051908101604052809392919081815260200183838082843760009201919091525092955061012b945050505050565b600180546001600160a01b0319166001600160a01b0392909216919091179055565b805161013e906000906020840190610142565b5050565b828054600181600116156101000203166002900490600052602060002090601f016020900481019282601f1061018357805160ff19168380011785556101b0565b828001600101855582156101b0579182015b828111156101b0578251825591602001919060010190610195565b506101bc9291506101c0565b5090565b6101da91905b808211156101bc57600081556001016101c6565b9056fea2646970667358221220174692dce65399cafd2f57ae42c07e8d69656498ab9cd52128375af01a2e8a4764736f6c63430006020033",
  "source": "// SPDX-License-Identifier: MIT\npragma solidity >=0.4.25 <0.7.0;\n\ncontract Debtor {\n    string name;\n    address account;\n\n    function setName(string memory _name) public {\n        name = _name;\n    }\n\n    function setAccount(address _account) public {\n        account = _account;\n    }\n}",
  "sourcePath": "/home/lmedury/post-covid-hack/BFactor/bfactor/contracts/Debtor.sol",
  "compiler": {
    "name": "solc",
    "version": "0.6.2+commit.bacdbe57.Linux.g++"
  },
  "schemaVersion": "3.3.2",
  "updatedAt": "2020-11-26T10:10:53.015Z",
  "networkType": "ethereum",
  "devdoc": {
    "methods": {}
  },
  "userdoc": {
    "methods": {}
  }
}