{
  "contractName": "Election",
  "abi": [
    {
      "inputs": [],
      "stateMutability": "nonpayable",
      "type": "constructor"
    },
    {
      "inputs": [
        {
          "internalType": "string",
          "name": "_name",
          "type": "string"
        }
      ],
      "name": "register",
      "outputs": [],
      "stateMutability": "nonpayable",
      "type": "function"
    },
    {
      "inputs": [
        {
          "internalType": "string",
          "name": "_c1",
          "type": "string"
        },
        {
          "internalType": "string",
          "name": "_c2",
          "type": "string"
        },
        {
          "internalType": "bool",
          "name": "_permission",
          "type": "bool"
        },
        {
          "internalType": "string",
          "name": "_description",
          "type": "string"
        },
        {
          "internalType": "uint256",
          "name": "_expiry",
          "type": "uint256"
        }
      ],
      "name": "createElection",
      "outputs": [],
      "stateMutability": "nonpayable",
      "type": "function"
    },
    {
      "inputs": [
        {
          "internalType": "uint256",
          "name": "_electionId",
          "type": "uint256"
        },
        {
          "internalType": "uint256",
          "name": "_choice",
          "type": "uint256"
        }
      ],
      "name": "vote",
      "outputs": [],
      "stateMutability": "nonpayable",
      "type": "function"
    },
    {
      "inputs": [
        {
          "internalType": "uint256",
          "name": "_electionId",
          "type": "uint256"
        }
      ],
      "name": "closeElection",
      "outputs": [],
      "stateMutability": "nonpayable",
      "type": "function"
    },
    {
      "inputs": [],
      "name": "getNumberOfUsers",
      "outputs": [
        {
          "internalType": "uint256",
          "name": "",
          "type": "uint256"
        }
      ],
      "stateMutability": "view",
      "type": "function",
      "constant": true
    },
    {
      "inputs": [],
      "name": "getNumberOfElection",
      "outputs": [
        {
          "internalType": "uint256",
          "name": "",
          "type": "uint256"
        }
      ],
      "stateMutability": "view",
      "type": "function",
      "constant": true
    }
  ],
  "bytecode": "0x608060405234801561001057600080fd5b506000808055600155610636806100286000396000f3fe608060405234801561001057600080fd5b50600436106100625760003560e01c806309e33d07146100675780634d0092881461008657806379d5d7f3146100a0578063991468b81461025a578063b384abef14610262578063f2c298be14610285575b600080fd5b6100846004803603602081101561007d57600080fd5b5035610329565b005b61008e6103a1565b60408051918252519081900360200190f35b610084600480360360a08110156100b657600080fd5b810190602081018135600160201b8111156100d057600080fd5b8201836020820111156100e257600080fd5b803590602001918460018302840111600160201b8311171561010357600080fd5b91908080601f0160208091040260200160405190810160405280939291908181526020018383808284376000920191909152509295949360208101935035915050600160201b81111561015557600080fd5b82018360208201111561016757600080fd5b803590602001918460018302840111600160201b8311171561018857600080fd5b91908080601f016020809104026020016040519081016040528093929190818152602001838380828437600092019190915250929584351515959094909350604081019250602001359050600160201b8111156101e457600080fd5b8201836020820111156101f657600080fd5b803590602001918460018302840111600160201b8311171561021757600080fd5b91908080601f01602080910402602001604051908101604052809392919081815260200183838082843760009201919091525092955050913592506103a8915050565b61008e6104a5565b6100846004803603604081101561027857600080fd5b50803590602001356104ab565b6100846004803603602081101561029b57600080fd5b810190602081018135600160201b8111156102b557600080fd5b8201836020820111156102c757600080fd5b803590602001918460018302840111600160201b831117156102e857600080fd5b91908080601f016020809104026020016040519081016040528093929190818152602001838380828437600092019190915250929550610525945050505050565b80600160008281526003602052604090206001015460ff16600281111561034c57fe5b1461035657600080fd5b600082815260036020526040902060090154339083906001600160a01b0316821461038057600080fd5b5050506000908152600360205260409020600101805460ff19166002179055565b6001545b90565b6000805460010180825580825260036020908152604090922090815586516103d892600290920191880190610568565b5060008054815260036020818152604090922086516103ff93919092019190870190610568565b506000805481526003602090815260408083206001908101805460ff19908116909217905583548452818420600401849055835484528184206005018490558354845281842060060180549091168715151790558254835280832060070184905582548352909120835161047b92600890920191850190610568565b505060008054815260036020526040902060090180546001600160a01b0319163317905550505050565b60005490565b81600160008281526003602052604090206001015460ff1660028111156104ce57fe5b146104d857600080fd5b81600114156104fe57600083815260036020526040902060040180546001019055610520565b8160021415610520576000838152600360205260409020600501805460010190555b505050565b600180548101815533600081815260026020908152604090912080546001600160a01b0319169092178255835161056493929092019190840190610568565b5050565b828054600181600116156101000203166002900490600052602060002090601f016020900481019282601f106105a957805160ff19168380011785556105d6565b828001600101855582156105d6579182015b828111156105d65782518255916020019190600101906105bb565b506105e29291506105e6565b5090565b6103a591905b808211156105e257600081556001016105ec56fea2646970667358221220da07260354e1db1cee28bc3da382fac8ccdcc944f1d9f03b547a60fe645f6d1464736f6c63430006020033",
  "source": "pragma solidity >=0.4.22 <0.7.0;\n\ncontract Election {\n    \n    enum ElectionState {CREATED, OPEN, ENDED}\n    \n    uint noOfElections;\n    uint noOfUsers;\n    \n    constructor() public {\n        noOfElections=0;\n        noOfUsers=0;\n    }\n\n    struct election{\n        uint id;\n        ElectionState state;\n        string option1;\n        string option2;\n        uint optCount1;\n        uint optCount2;\n        bool isPermissionLess;\n        uint256 expiryTime;\n        string description;\n        address creator;\n    }\n    \n    struct user{\n        address userAddress;\n        string name;\n    }\n    \n    mapping(address => user) users;\n    \n    mapping(uint => election) elections;\n    \n    modifier electionActive (uint _id) {\n        require(\n            elections[_id].state == ElectionState.OPEN\n        );\n        _;\n    }\n    \n    modifier electionCreator (address _creator, uint _id) {\n        require(\n            elections[_id].creator == _creator\n        );\n        _;\n    }\n    \n    function register(string memory _name) public {\n        noOfUsers++;\n        users[msg.sender].userAddress=msg.sender;\n        users[msg.sender].name=_name;\n    }\n    \n    function createElection(string memory _c1, string memory _c2, bool _permission, string memory _description, uint256 _expiry) public{\n        noOfElections++;\n        elections[noOfElections].id=noOfElections;\n        elections[noOfElections].option1=_c1;\n        elections[noOfElections].option2=_c2;\n        elections[noOfElections].state=ElectionState.OPEN;\n        elections[noOfElections].optCount1=0;\n        elections[noOfElections].optCount2=0;\n        elections[noOfElections].isPermissionLess=_permission;\n        elections[noOfElections].expiryTime=_expiry;\n        elections[noOfElections].description=_description;\n        elections[noOfElections].creator=msg.sender;\n    }\n    \n    //TODO Ensure not more than one votes are counted\n    function vote(uint _electionId, uint _choice) electionActive(_electionId) public{\n        if(_choice==1){\n            elections[_electionId].optCount1++;\n        }\n        else if(_choice==2){\n            elections[_electionId].optCount2++;\n        }\n    }\n    \n    function closeElection(uint _electionId) electionActive(_electionId) electionCreator(msg.sender, _electionId) public {\n        elections[_electionId].state = ElectionState.ENDED;\n    }\n\n    function getNumberOfUsers() public view returns (uint){\n        return noOfUsers;\n    }\n\n    function getNumberOfElection() public view returns (uint){\n        return noOfElections;\n    }\n    \n}\n",
  "sourcePath": "/home/lmedury/post-covid-hack/elections/elections/contracts/Election.sol",
  "compiler": {
    "name": "solc",
    "version": "0.6.2+commit.bacdbe57.Linux.g++"
  },
  "schemaVersion": "3.3.2",
  "updatedAt": "2021-01-27T10:27:30.706Z",
  "networkType": "ethereum",
  "devdoc": {
    "methods": {}
  },
  "userdoc": {
    "methods": {}
  }
}