{
  "contractName": "Elections",
  "abi": [
    {
      "inputs": [],
      "stateMutability": "nonpayable",
      "type": "constructor"
    },
    {
      "inputs": [
        {
          "internalType": "string",
          "name": "_name",
          "type": "string"
        }
      ],
      "name": "register",
      "outputs": [],
      "stateMutability": "nonpayable",
      "type": "function"
    },
    {
      "inputs": [
        {
          "internalType": "string",
          "name": "_c1",
          "type": "string"
        },
        {
          "internalType": "string",
          "name": "_c2",
          "type": "string"
        },
        {
          "internalType": "bool",
          "name": "_permission",
          "type": "bool"
        },
        {
          "internalType": "string",
          "name": "_description",
          "type": "string"
        },
        {
          "internalType": "uint256",
          "name": "_expiry",
          "type": "uint256"
        }
      ],
      "name": "createElection",
      "outputs": [],
      "stateMutability": "nonpayable",
      "type": "function"
    },
    {
      "inputs": [
        {
          "internalType": "uint256",
          "name": "_electionId",
          "type": "uint256"
        },
        {
          "internalType": "uint256",
          "name": "_choice",
          "type": "uint256"
        }
      ],
      "name": "vote",
      "outputs": [],
      "stateMutability": "nonpayable",
      "type": "function"
    },
    {
      "inputs": [
        {
          "internalType": "uint256",
          "name": "_electionId",
          "type": "uint256"
        }
      ],
      "name": "closeElection",
      "outputs": [],
      "stateMutability": "nonpayable",
      "type": "function"
    }
  ],
  "bytecode": "0x608060405234801561001057600080fd5b5060008080556001556105f0806100286000396000f3fe608060405234801561001057600080fd5b506004361061004c5760003560e01c806309e33d071461005157806379d5d7f314610070578063b384abef1461022a578063f2c298be1461024d575b600080fd5b61006e6004803603602081101561006757600080fd5b50356102f1565b005b61006e600480360360a081101561008657600080fd5b810190602081018135600160201b8111156100a057600080fd5b8201836020820111156100b257600080fd5b803590602001918460018302840111600160201b831117156100d357600080fd5b91908080601f0160208091040260200160405190810160405280939291908181526020018383808284376000920191909152509295949360208101935035915050600160201b81111561012557600080fd5b82018360208201111561013757600080fd5b803590602001918460018302840111600160201b8311171561015857600080fd5b91908080601f016020809104026020016040519081016040528093929190818152602001838380828437600092019190915250929584351515959094909350604081019250602001359050600160201b8111156101b457600080fd5b8201836020820111156101c657600080fd5b803590602001918460018302840111600160201b831117156101e757600080fd5b91908080601f0160208091040260200160405190810160405280939291908181526020018383808284376000920191909152509295505091359250610369915050565b61006e6004803603604081101561024057600080fd5b5080359060200135610462565b61006e6004803603602081101561026357600080fd5b810190602081018135600160201b81111561027d57600080fd5b82018360208201111561028f57600080fd5b803590602001918460018302840111600160201b831117156102b057600080fd5b91908080601f0160208091040260200160405190810160405280939291908181526020018383808284376000920191909152509295506104dc945050505050565b80600160008281526003602052604090206001015460ff16600281111561031457fe5b1461031e57600080fd5b600082815260036020526040902060090154339083906001600160a01b0316821461034857600080fd5b5050506000908152600360205260409020600101805460ff19166002179055565b6000805460010180825580825260036020908152604090922090815586516103999260029092019188019061051f565b5060008054815260036020818152604090922086516103c09391909201919087019061051f565b50600080548152600360209081526040808320600101805460ff199081169091558354845281842060040184905583548452818420600501849055835484528184206006018054909116871515179055825483528083206007018490558254835290912083516104389260089092019185019061051f565b505060008054815260036020526040902060090180546001600160a01b0319163317905550505050565b81600160008281526003602052604090206001015460ff16600281111561048557fe5b1461048f57600080fd5b81600114156104b5576000838152600360205260409020600401805460010190556104d7565b81600214156104d7576000838152600360205260409020600501805460010190555b505050565b600180548101815533600081815260026020908152604090912080546001600160a01b0319169092178255835161051b9392909201919084019061051f565b5050565b828054600181600116156101000203166002900490600052602060002090601f016020900481019282601f1061056057805160ff191683800117855561058d565b8280016001018555821561058d579182015b8281111561058d578251825591602001919060010190610572565b5061059992915061059d565b5090565b6105b791905b8082111561059957600081556001016105a3565b9056fea26469706673582212206ae1644704a1fe09ad006d7848e175ab59d33b81e963269f55751b8760ef0a7864736f6c63430006020033",
  "source": "pragma solidity >=0.4.22 <0.7.0;\n\ncontract Elections {\n    \n    enum ElectionState {CREATED, OPEN, ENDED}\n    \n    uint noOfElections;\n    uint noOfUsers;\n    \n    constructor() public {\n        noOfElections=0;\n        noOfUsers=0;\n    }\n\n    struct election{\n        uint id;\n        ElectionState state;\n        string option1;\n        string option2;\n        uint optCount1;\n        uint optCount2;\n        bool isPermissionLess;\n        uint256 expiryTime;\n        string description;\n        address creator;\n    }\n    \n    struct user{\n        address userAddress;\n        string name;\n    }\n    \n    mapping(address => user) users;\n    \n    mapping(uint => election) elections;\n    \n    modifier electionActive (uint _id) {\n        require(\n            elections[_id].state == ElectionState.OPEN\n        );\n        _;\n    }\n    \n    modifier electionCreator (address _creator, uint _id) {\n        require(\n            elections[_id].creator == _creator\n        );\n        _;\n    }\n    \n    function register(string memory _name) public {\n        noOfUsers++;\n        users[msg.sender].userAddress=msg.sender;\n        users[msg.sender].name=_name;\n    }\n    \n    function createElection(string memory _c1, string memory _c2, bool _permission, string memory _description, uint256 _expiry) public{\n        noOfElections++;\n        elections[noOfElections].id=noOfElections;\n        elections[noOfElections].option1=_c1;\n        elections[noOfElections].option2=_c2;\n        elections[noOfElections].state=ElectionState.CREATED;\n        elections[noOfElections].optCount1=0;\n        elections[noOfElections].optCount2=0;\n        elections[noOfElections].isPermissionLess=_permission;\n        elections[noOfElections].expiryTime=_expiry;\n        elections[noOfElections].description=_description;\n        elections[noOfElections].creator=msg.sender;\n    }\n    \n    //TODO Ensure not more than one votes are counted\n    function vote(uint _electionId, uint _choice) electionActive(_electionId) public{\n        if(_choice==1){\n            elections[_electionId].optCount1++;\n        }\n        else if(_choice==2){\n            elections[_electionId].optCount2++;\n        }\n    }\n    \n    function closeElection(uint _electionId) electionActive(_electionId) electionCreator(msg.sender, _electionId) public {\n        elections[_electionId].state = ElectionState.ENDED;\n    }\n    \n}\n",
  "sourcePath": "/home/lmedury/post-covid-hack/elections/elections/contracts/Election.sol",
  "compiler": {
    "name": "solc",
    "version": "0.6.2+commit.bacdbe57.Linux.g++"
  },
  "schemaVersion": "3.3.2",
  "updatedAt": "2021-01-27T09:11:47.833Z",
  "devdoc": {
    "methods": {}
  },
  "userdoc": {
    "methods": {}
  }
}