{
  "contractName": "Election",
  "abi": [
    {
      "inputs": [],
      "stateMutability": "nonpayable",
      "type": "constructor"
    },
    {
      "inputs": [
        {
          "internalType": "uint256",
          "name": "",
          "type": "uint256"
        }
      ],
      "name": "elections",
      "outputs": [
        {
          "internalType": "uint256",
          "name": "id",
          "type": "uint256"
        },
        {
          "internalType": "enum Election.ElectionState",
          "name": "state",
          "type": "uint8"
        },
        {
          "internalType": "string",
          "name": "option1",
          "type": "string"
        },
        {
          "internalType": "string",
          "name": "option2",
          "type": "string"
        },
        {
          "internalType": "uint256",
          "name": "optCount1",
          "type": "uint256"
        },
        {
          "internalType": "uint256",
          "name": "optCount2",
          "type": "uint256"
        },
        {
          "internalType": "bool",
          "name": "isPermissionLess",
          "type": "bool"
        },
        {
          "internalType": "uint256",
          "name": "expiryTime",
          "type": "uint256"
        },
        {
          "internalType": "string",
          "name": "description",
          "type": "string"
        },
        {
          "internalType": "address",
          "name": "creator",
          "type": "address"
        }
      ],
      "stateMutability": "view",
      "type": "function",
      "constant": true
    },
    {
      "inputs": [],
      "name": "noOfElections",
      "outputs": [
        {
          "internalType": "uint256",
          "name": "",
          "type": "uint256"
        }
      ],
      "stateMutability": "view",
      "type": "function",
      "constant": true
    },
    {
      "inputs": [],
      "name": "noOfUsers",
      "outputs": [
        {
          "internalType": "uint256",
          "name": "",
          "type": "uint256"
        }
      ],
      "stateMutability": "view",
      "type": "function",
      "constant": true
    },
    {
      "inputs": [
        {
          "internalType": "address",
          "name": "",
          "type": "address"
        }
      ],
      "name": "registrations",
      "outputs": [
        {
          "internalType": "bool",
          "name": "",
          "type": "bool"
        }
      ],
      "stateMutability": "view",
      "type": "function",
      "constant": true
    },
    {
      "inputs": [
        {
          "internalType": "address",
          "name": "",
          "type": "address"
        }
      ],
      "name": "users",
      "outputs": [
        {
          "internalType": "address",
          "name": "userAddress",
          "type": "address"
        },
        {
          "internalType": "string",
          "name": "name",
          "type": "string"
        }
      ],
      "stateMutability": "view",
      "type": "function",
      "constant": true
    },
    {
      "inputs": [
        {
          "internalType": "string",
          "name": "_name",
          "type": "string"
        }
      ],
      "name": "register",
      "outputs": [],
      "stateMutability": "nonpayable",
      "type": "function"
    },
    {
      "inputs": [
        {
          "internalType": "string",
          "name": "_c1",
          "type": "string"
        },
        {
          "internalType": "string",
          "name": "_c2",
          "type": "string"
        },
        {
          "internalType": "bool",
          "name": "_permission",
          "type": "bool"
        },
        {
          "internalType": "string",
          "name": "_description",
          "type": "string"
        },
        {
          "internalType": "uint256",
          "name": "_expiry",
          "type": "uint256"
        }
      ],
      "name": "createElection",
      "outputs": [],
      "stateMutability": "nonpayable",
      "type": "function"
    },
    {
      "inputs": [
        {
          "internalType": "uint256",
          "name": "_electionId",
          "type": "uint256"
        },
        {
          "internalType": "uint256",
          "name": "_choice",
          "type": "uint256"
        }
      ],
      "name": "vote",
      "outputs": [],
      "stateMutability": "nonpayable",
      "type": "function"
    },
    {
      "inputs": [
        {
          "internalType": "uint256",
          "name": "_electionId",
          "type": "uint256"
        }
      ],
      "name": "closeElection",
      "outputs": [],
      "stateMutability": "nonpayable",
      "type": "function"
    },
    {
      "inputs": [],
      "name": "getNumberOfUsers",
      "outputs": [
        {
          "internalType": "uint256",
          "name": "",
          "type": "uint256"
        }
      ],
      "stateMutability": "view",
      "type": "function",
      "constant": true
    },
    {
      "inputs": [],
      "name": "getNumberOfElection",
      "outputs": [
        {
          "internalType": "uint256",
          "name": "",
          "type": "uint256"
        }
      ],
      "stateMutability": "view",
      "type": "function",
      "constant": true
    }
  ],
  "bytecode": "0x608060405234801561001057600080fd5b506000808055600155610cb0806100286000396000f3fe608060405234801561001057600080fd5b50600436106100a95760003560e01c806379d5d7f31161007157806379d5d7f3146102ad578063942e6bcf14610467578063991468b8146104a1578063a87430ba146104a9578063b384abef14610560578063f2c298be14610583576100a9565b806301934a83146100ae57806309e33d07146100c85780632e32e482146100e75780634d009288146100ef5780635e6fef01146100f7575b600080fd5b6100b6610627565b60408051918252519081900360200190f35b6100e5600480360360208110156100de57600080fd5b503561062d565b005b6100b66106a5565b6100b66106ab565b6101146004803603602081101561010d57600080fd5b50356106b2565b604051808b81526020018a600281111561012a57fe5b60ff16815260200180602001806020018981526020018881526020018715151515815260200186815260200180602001856001600160a01b03166001600160a01b0316815260200184810384528c818151815260200191508051906020019080838360005b838110156101a757818101518382015260200161018f565b50505050905090810190601f1680156101d45780820380516001836020036101000a031916815260200191505b5084810383528b5181528b516020918201918d019080838360005b838110156102075781810151838201526020016101ef565b50505050905090810190601f1680156102345780820380516001836020036101000a031916815260200191505b50848103825286518152865160209182019188019080838360005b8381101561026757818101518382015260200161024f565b50505050905090810190601f1680156102945780820380516001836020036101000a031916815260200191505b509d505050505050505050505050505060405180910390f35b6100e5600480360360a08110156102c357600080fd5b810190602081018135600160201b8111156102dd57600080fd5b8201836020820111156102ef57600080fd5b803590602001918460018302840111600160201b8311171561031057600080fd5b91908080601f0160208091040260200160405190810160405280939291908181526020018383808284376000920191909152509295949360208101935035915050600160201b81111561036257600080fd5b82018360208201111561037457600080fd5b803590602001918460018302840111600160201b8311171561039557600080fd5b91908080601f016020809104026020016040519081016040528093929190818152602001838380828437600092019190915250929584351515959094909350604081019250602001359050600160201b8111156103f157600080fd5b82018360208201111561040357600080fd5b803590602001918460018302840111600160201b8311171561042457600080fd5b91908080601f01602080910402602001604051908101604052809392919081815260200183838082843760009201919091525092955050913592506108b1915050565b61048d6004803603602081101561047d57600080fd5b50356001600160a01b03166109d2565b604080519115158252519081900360200190f35b6100b66109e7565b6104cf600480360360208110156104bf57600080fd5b50356001600160a01b03166109ed565b60405180836001600160a01b03166001600160a01b0316815260200180602001828103825283818151815260200191508051906020019080838360005b8381101561052457818101518382015260200161050c565b50505050905090810190601f1680156105515780820380516001836020036101000a031916815260200191505b50935050505060405180910390f35b6100e56004803603604081101561057657600080fd5b5080359060200135610a9e565b6100e56004803603602081101561059957600080fd5b810190602081018135600160201b8111156105b357600080fd5b8201836020820111156105c557600080fd5b803590602001918460018302840111600160201b831117156105e657600080fd5b91908080601f016020809104026020016040519081016040528093929190818152602001838380828437600092019190915250929550610b85945050505050565b60015481565b80600160008281526004602052604090206001015460ff16600281111561065057fe5b1461065a57600080fd5b600082815260046020526040902060090154339083906001600160a01b0316821461068457600080fd5b5050506000908152600460205260409020600101805460ff19166002179055565b60005481565b6001545b90565b60046020908152600091825260409182902080546001808301546002808501805488516101009582161595909502600019011691909104601f8101879004870284018701909752868352929560ff909116949192918301828280156107585780601f1061072d57610100808354040283529160200191610758565b820191906000526020600020905b81548152906001019060200180831161073b57829003601f168201915b5050505060038301805460408051602060026001851615610100026000190190941693909304601f81018490048402820184019092528181529495949350908301828280156107e85780601f106107bd576101008083540402835291602001916107e8565b820191906000526020600020905b8154815290600101906020018083116107cb57829003601f168201915b50505050600483015460058401546006850154600786015460088701805460408051602060026101006001861615026000190190941693909304601f81018490048402820184019092528181529899969895975060ff9094169592949293908301828280156108985780601f1061086d57610100808354040283529160200191610898565b820191906000526020600020905b81548152906001019060200180831161087b57829003601f168201915b505050600990930154919250506001600160a01b03168a565b3360009081526003602052604090205460ff166108cd57600080fd5b6000805460010180825580825260046020908152604090922090815586516108fd92600290920191880190610be2565b50600080548152600460209081526040909120855161092492600390920191870190610be2565b506000805481526004602052604090206001908101805460ff1916828002179055506000805481526004602081815260408084209092018390558254835281832060050183905582548352818320600601805460ff19168715151790558254835281832060070184905582548352912083516109a892600890920191850190610be2565b505060008054815260046020526040902060090180546001600160a01b0319163317905550505050565b60036020526000908152604090205460ff1681565b60005490565b6002602081815260009283526040928390208054600180830180548751601f600019948316156101000294909401909116969096049182018590048502860185019096528085526001600160a01b0390911694919392830182828015610a945780601f10610a6957610100808354040283529160200191610a94565b820191906000526020600020905b815481529060010190602001808311610a7757829003601f168201915b5050505050905082565b81600160008281526004602052604090206001015460ff166002811115610ac157fe5b14610acb57600080fd5b3360009081526003602052604090205460ff16610ae757600080fd5b6000838152600460209081526040808320338452600a0190915290205460ff1615610b1157600080fd5b8160011415610b385760008381526004602081905260409091200180546001019055610b5a565b8160021415610b5a576000838152600460205260409020600501805460010190555b50506000908152600460209081526040808320338452600a019091529020805460ff19166001179055565b600180548101815533600081815260026020908152604090912080546001600160a01b03191690921782558351610bc493929092019190840190610be2565b5050336000908152600360205260409020805460ff19166001179055565b828054600181600116156101000203166002900490600052602060002090601f016020900481019282601f10610c2357805160ff1916838001178555610c50565b82800160010185558215610c50579182015b82811115610c50578251825591602001919060010190610c35565b50610c5c929150610c60565b5090565b6106af91905b80821115610c5c5760008155600101610c6656fea26469706673582212204aa2bc891fcc2d22756492263afbf347f51d42a20d6cb37e8ec52a35d0c1e44764736f6c63430006020033",
  "source": "pragma solidity >=0.4.22 <0.7.0;\n\ncontract Election {\n    \n    enum ElectionState {CREATED, OPEN, ENDED}\n    \n    uint public noOfElections;\n    uint public noOfUsers;\n    \n    constructor() public {\n        noOfElections=0;\n        noOfUsers=0;\n    }\n\n    struct election{\n        uint id;\n        ElectionState state;\n        string option1;\n        string option2;\n        uint optCount1;\n        uint optCount2;\n        bool isPermissionLess;\n        uint256 expiryTime;\n        string description;\n        address creator;\n        mapping(address => bool) voted;\n    }\n    \n    struct user{\n        address userAddress;\n        string name;\n    }\n    \n    mapping(address => user) public users;\n    mapping(address => bool) public registrations;\n    \n    mapping(uint => election) public elections;\n    \n    modifier electionActive (uint _id) {\n        require(\n            elections[_id].state == ElectionState.OPEN\n        );\n        _;\n    }\n    \n    modifier electionCreator (address _creator, uint _id) {\n        require(\n            elections[_id].creator == _creator\n        );\n        _;\n    }\n    \n    function register(string memory _name) public {\n        noOfUsers++;\n        users[msg.sender].userAddress=msg.sender;\n        users[msg.sender].name=_name;\n        registrations[msg.sender]=true;\n    }\n    \n    function createElection(string memory _c1, string memory _c2, bool _permission, string memory _description, uint256 _expiry) public{\n        require(registrations[msg.sender]);\n        noOfElections++;\n        elections[noOfElections].id=noOfElections;\n        elections[noOfElections].option1=_c1;\n        elections[noOfElections].option2=_c2;\n        elections[noOfElections].state=ElectionState.OPEN;\n        elections[noOfElections].optCount1=0;\n        elections[noOfElections].optCount2=0;\n        elections[noOfElections].isPermissionLess=_permission;\n        elections[noOfElections].expiryTime=_expiry;\n        elections[noOfElections].description=_description;\n        elections[noOfElections].creator=msg.sender;\n    }\n    \n    //TODO Ensure not more than one votes are counted\n    function vote(uint _electionId, uint _choice) electionActive(_electionId) public{\n        require(registrations[msg.sender]);\n        require(elections[_electionId].voted[msg.sender]==false);\n        if(_choice==1){\n            elections[_electionId].optCount1++;\n        }\n        else if(_choice==2){\n            elections[_electionId].optCount2++;\n        }\n        elections[_electionId].voted[msg.sender]=true;\n    }\n    \n    function closeElection(uint _electionId) electionActive(_electionId) electionCreator(msg.sender, _electionId) public {\n        elections[_electionId].state = ElectionState.ENDED;\n    }\n\n    function getNumberOfUsers() public view returns (uint){\n        return noOfUsers;\n    }\n\n    function getNumberOfElection() public view returns (uint){\n        return noOfElections;\n    }\n    \n}\n",
  "sourcePath": "/home/lmedury/post-covid-hack/elections/elections/contracts/Election.sol",
  "compiler": {
    "name": "solc",
    "version": "0.6.2+commit.bacdbe57.Linux.g++"
  },
  "schemaVersion": "3.3.2",
  "updatedAt": "2021-01-28T10:42:20.925Z",
  "networkType": "ethereum",
  "devdoc": {
    "methods": {}
  },
  "userdoc": {
    "methods": {}
  }
}